:020000040800F2
:100000008067002061020008014D00089D42000841
:10001000FD4C000821090008015E000800000000F6
:10002000000000000000000000000000A101000826
:10003000BF0A000800000000FD010008CF550008BD
:100040007B0200087B0200087B0200087B0200089C
:100050007B0200087B0200087B0200087B0200088C
:100060007B0200087B0200087B0200087B0200087C
:100070007B0200087B0200087B0200087B0200086C
:1000800095090008A50900087B0200084509000839
:1000900025090008350900087B0200087B020008DA
:1000A0007B0200087B0200087B0200087B0200083C
:1000B0007B0200087B0200087B0200087B0200082C
:1000C0007B0200087B0200087B0200087B0200081C
:1000D0007B020008E15D0008F15D00087B0200087A
:1000E0007B0200087B0200087B0200087B020008FC
:1000F0007B0200087B0200087B0200087B020008EC
:100100007B0200087B0200087B0200087B020008DB
:100110007B0200087B0200087B020008AD56000845
:100120007B0200087B020008B50900087B0200087A
:100130007B0200087B0200087B0200087B020008AB
:100140007B0200087B0200087B0200087B0200089B
:100150007B0200087B020008C50900087B0200083A
:100160007B0200087B0200087B0200087B0200087B
:100170007B0200087B0200087B02000800000000F0
:100180007B0200087B020008DFF810D000F046FB7D
:100190000048004721670008AFF300808067002017
:1001A0002C4B19680868B0E8F04F80F30988BFF35A
:1001B0006F8F4FF0000080F311887047000000003F
:1001C00008480068006880F308884FF0000080F35A
:1001D000148862B661B6BFF34F8FBFF36F8F00DF35
:1001E00000BF00BF08ED00E0DFF80C00016841F43B
:1001F00070010160704700BF88ED00E0EFF30980F7
:10020000BFF36F8F134B1A681EF0100F08BF20ED5D
:10021000108A20E9F04F106009B44FF0500080F3CD
:100220001188BFF34F8FBFF36F8F07F0B7FA4FF00E
:10023000000080F3118809BC19680868B0E8F04F25
:100240001EF0100F08BFB0EC108A80F30988BFF3CE
:100250006F8F70479C010020EFF30580704700000E
:100260000648804706480047FEE7FEE7FEE7FEE750
:10027000FEE7FEE7FEE7FEE7FEE7FEE79D56000825
:10028000890100082DE9F05F0546002092469B4653
:1002900088460646814640241BE02846414647469C
:1002A000224600F024FA53465A46C01A914110D310
:1002B00011461846224600F00BFA2D1A67EB01088A
:1002C0004F4622460120002100F002FA17EB0009F8
:1002D0004E41201EA4F10104DFDC484631462A4687
:1002E0004346BDE8F09F40EA01039B0703D009E0C5
:1002F00008C9121F08C0042AFAD203E011F8013B12
:1003000000F8013B521EF9D27047D2B201E000F86A
:10031000012B491EFBD270470022F6E710B51346A9
:100320000A4604461946FFF7F0FF204610BD421C5E
:1003300010F8011B0029FBD1801A70472DE9FE4FF0
:10034000804681EA0300C00F0C46009021F0004176
:1003500023F00045B8EB0200A94105D240462146F2
:1003600090461C460B46024623F00040104347D0FF
:10037000270DC7F30A00C3F30A510290401A0190F7
:1003800040286BDAC3F3130040F4801B00989246B8
:1003900020B10023D2EB030A63EB0B0B0198594603
:1003A000C0F14002504600F093F906460D46504613
:1003B0005946019A00F0ABF910EB080061410024A6
:1003C00087EA115284EAE7731A4340D0009A62B375
:1003D000019A012A4FEA075215DC001B61EB02016A
:1003E0004FF0004202EA0752CDE90042001C41F5FD
:1003F000801132462B4600F0ABF903B0BDE8F08F18
:1004000040462146F9E7001B61EB0201001C41F563
:10041000801300185B412018A2F5001747EB030179
:1004200040EAD570B6196D4111E06D084FEA360605
:1004300045EAC0754FEA0752001B61EB0201001C40
:1004400041F5801149084FEA300000195141324608
:100450002B4603B0BDE8F04F00F06BB900980122C5
:1004600040000023D0EB020263EBE07300982146CA
:100470004FEAE074B8EB000061EB0401E9E783F0B8
:1004800000435BE781F0004158E72DE9FE4F81EA28
:10049000030404F0004421F0004100944FF0000BED
:1004A00023F0004350EA01045ED052EA03045BD01B
:1004B000C3F30A54C1F30A552C44A4F2F334019453
:1004C000A0FB0254C1F3130141F48011C3F31303E1
:1004D00043F4801301FB024400FB034E840A970A95
:1004E00044EA815447EA8357A4FB076802958D0AC2
:1004F00005FB07854FEA932C04FB0C542705029D4E
:100500004FEA065847EA1637B5EB08056EEB070CBD
:10051000870E920E47EA811742EA8312A7FB020177
:10052000B6EB0B0164EB00042B0D43EA0C335E18B1
:1005300044EB1C50DA465146E7FB0201C5F31304B5
:100540004FEA0B3343EA14534FEA0432019C43EA67
:100550000603A4F10C040294009CCDE900B400F061
:10056000F7F803B0BDE8F08F00200146F9E72DE968
:10057000F04D81EA030404F0004B21F000451446DD
:100580004FF0000A23F0004150EA050220D054EA5F
:1005900001021DD0C5F30A570246C5F31303C1F388
:1005A0001300C1F30A5640F4801543F48013A7EBFF
:1005B0000608101BD64608F2FD3873EB050002D37F
:1005C00008F1010801E092185B41B8F1000F03DA6D
:1005D00000200146BDE8F08D00204FF48011064652
:1005E00084460EE0171B73EB050705D3121B63EB64
:1005F000050306434CEA010C49084FEA3000921803
:100600005B4150EA0107EDD152EA030012D082EAC1
:10061000040083EA0501084305D0101BAB4106D254
:100620000122002306E000224FF0004302E06FF0B9
:10063000010253101AEB06004CEB085110EB0A00B4
:1006400041EB0B01BDE8F04D00F073B800F0004243
:1006500030F000400AD0C10D01F56071C0F3160002
:1006600042EA0151C2084007114370470020014689
:100670007047000030B5041E71F1000404DB4FF038
:100680000044404264EB0101141E73F1000405DBD9
:100690001C464FF00043524263EB0403994208BFEB
:1006A000904230BD30B50B46014600202022012487
:1006B00009E021FA02F59D4205D303FA02F5491B30
:1006C00004FA02F52844151EA2F10102F1DC30BD46
:1006D000202A04DB203A00FA02F100207047914002
:1006E000C2F1200320FA03F3194390407047202AF7
:1006F00004DB203A21FA02F00021704721FA02F3CC
:10070000D040C2F120029140084319467047202A88
:1007100006DBCB17203A41FA02F043EAE07306E029
:1007200041FA02F3D040C2F1200291400843194639
:10073000704710B5141E73F1000408DA401C41F133
:10074000000192185B411A4301D120F0010010BD55
:100750002DE9F04D92469B4611B1B1FA81F202E0CB
:10076000B0FA80F220329046FFF7B2FF04460F46FF
:1007700040EA0A0041EA0B0153465A46084313D0A7
:10078000114653EA010019D0C8F140025046FFF764
:10079000AEFF05460E46504659464246FFF798FFC3
:1007A000084305D0012004E020463946BDE8F08D1D
:1007B0000020054346EAE0762C4337430A98630558
:1007C000E40AA0EB08000022FD0A44EA47540A307C
:1007D00002D500200146E9E7010510196941DDE96C
:1007E000084500196941BDE8F04DA2E7C1F30A527E
:1007F000C1F3130140F2FF3341F480119A4202DA4F
:1008000000200146704740F233439A42A2F233423D
:1008100002DC5242FFF76BBFFFF75ABF064C074D91
:1008200006E0E06840F0010394E8070098471034C0
:10083000AC42F6D3FFF7ACFC60830008808300086D
:1008400070B58C1810F8015B15F0070301D110F892
:10085000013B2A1106D110F8012B03E010F8016BBF
:1008600001F8016B5B1EF9D12B0705D40023521E42
:100870000DD401F8013BFAE710F8013BCB1A921CAA
:1008800003E013F8015B01F8015B521EF9D5A142A8
:10089000D8D3002070BD000010B5002415E020461C
:1008A00004F038FB00200CE00021174A02EBC402E0
:1008B00022F81010154A02EBC40222F81010411C55
:1008C000C8B20428F0DB601CC4B2022CE7DB0024B1
:1008D00014E0204604F01EFB00200BE00A4901EB67
:1008E000C40131F81010094A02EBC40222F81010BA
:1008F000411CC8B20428F1DB601CC4B2022CE8DB46
:1009000003A005F07FFA10BD6808002078080020D9
:100910005A65726F207265736574210D0A000000BC
:1009200000BFFEE710B5024800F0ADFA10BD0000B0
:100930003807002010B5024800F0A5FA10BD0000ED
:100940003807002010B5024800F09DFA10BD0000E5
:100950003807002030B587B005460C46642001F00A
:1009600053F901221103084801F082FA0195002091
:100970000490039008200590044B224601A90448E6
:1009800000F0B3F807B030BD001402404001002071
:100990003807002010B5024800F092FF10BD00009B
:1009A000A40D002010B5024800F08AFF10BD000021
:1009B000040E002010B5024800F082FF10BD0000B8
:1009C000E40C002010B5024800F07AFF10BD0000D2
:1009D000440D002001680A4BCAB2103AA3FB023250
:1009E0001209084B9B5CC365032A04D96FF3090104
:1009F000091D816502E06FF309018165806D704713
:100A0000ABAAAAAA20830008014600208A6A8B6943
:100A1000002B0FD0B3F5005F1DD08AB3012A30D070
:100A2000022A2ED0032A04D1C96A11F0807F00D097
:100A3000012070471AB1012A07D0022AF9D1C96AE8
:100A400011F0807FF5D001207047C96AB1F1C07FF5
:100A5000FAD1012070475AB1012A0BD0022A07D0DF
:100A6000032AF7D1C96AB1F1C07FF3D101207047E1
:100A700001207047C96A11F0807FFAD001207047C9
:100A8000FFE70120704710B4D0F800C0DCF8004048
:100A900024F48024CCF80040D0F800C0CCF8043016
:100AA0008368402B05D0036899600068C26010BC61
:100AB000704703689A600068C16010BC7047704757
:100AC00072B600BFFEE790F82020012A07D0022A64
:100AD00005D0416A41F480214162012070470068DD
:100AE0004269114341610020704770B490F8204082
:100AF000D0F800C0DCF808C0012C08D0022C06D0C9
:100B0000416A41F48021416270BC012070470CF0C1
:100B100080640CF000652C4302D11CF0805F5FD034
:100B2000CCF3016CBCF1020F06D9416A41F400011B
:100B3000416270BC01207047012404FA0CF41C606F
:100B40008B684FF4C0749BB1CD6804EB0C162B433B
:100B50004D6843EAC5030568AB514FF4C27306689C
:100B600003EB0C130D69F550097D012909D00DE047
:100B70000D88CB6804EB0C1643EA45530568AB516E
:100B8000EBE70168CD5845F48075CD501179D379E4
:100B9000557941EA036193791B0443EA052319431C
:100BA0004FF4C675036805EB0C1559511178D378CD
:100BB00041EA0361937852781B0443EA022211430D
:100BC0004FF4C473026803EB0C13D150016804EBBB
:100BD0000C100A5842F001020A5070BC0020704705
:100BE000416A41F40011416270BC0120704700006D
:100BF00090F82020012A07D0022A05D0416A41F44A
:100C000080214162012070474248D0F8002242F022
:100C10000102C0F80022D0F8002222F47C52C0F871
:100C20000022D0F800224B6A42EA0322C0F80022D8
:100C30000A7D012302F01F0203FA02F2D0F81C32EF
:100C40009343C0F81C32CB69D3B9D0F80C3293432C
:100C5000C0F80C32B1F80CC04B686CF31F43D1F8EC
:100C600014C000EBCC0CCCF84032B1F808C00B68D3
:100C70006CF31F43D1F814C000EBCC0CCCF8443219
:100C8000CB69012B1AD1D0F80C321343C0F80C32C7
:100C9000B1F800C04B686CF31F43D1F814C000EBEF
:100CA000CC0CCCF84032B1F808C0CB686CF31F43D1
:100CB000D1F814C000EBCC0CCCF844328B697BB17A
:100CC000D0F804321343C0F804320B6973B1D0F882
:100CD00014321343C0F81432096A01290CD010E011
:100CE000D0F804329343C0F80432EEE7D0F814325F
:100CF0009343C0F81432EFE7D0F81C121143C0F848
:100D00001C12D0F8001221F00101C0F800120020DE
:100D10007047000000640040704710B490F820C095
:100D2000BCF1010F09D0BCF1020F06D0416A41F4B9
:100D30008021416210BC0120704739B1D0F800C059
:100D4000DCF810C01CF0030F7DD006E0D0F800C026
:100D5000DCF80CC01CF0030F7BD04FF4D87C046887
:100D60000CEB011C54F80C4004F004049460002CBB
:100D70007DD0046854F80C40E4085460046854F8CA
:100D80000CC00CF0020CC2F80CC04FF4DA7C046802
:100D90000CEB011C54F80C4004F00F0414610468BF
:100DA00054F80C40C4F307249461046854F80CC050
:100DB0004FEA1C4CC2F814C04FF4DC72D0F800C0EB
:100DC00002EB01125CF802C083F800C0D0F800C04A
:100DD0005CF802C04FEA1C2C83F801C0D0F800C0B8
:100DE0005CF802C04FEA1C4C83F802C0D0F800C087
:100DF0005CF80220120EDA704FF4DE72D0F800C0F8
:100E000002EB01125CF802C083F804C0D0F800C005
:100E10005CF802C04FEA1C2C83F805C0D0F800C073
:100E20005CF802C04FEA1C4C83F806C0D0F800C042
:100E30005CF80220120EDA71F9B10068016941F024
:100E40002001016102E00BE003E010E010BC002093
:100E50007047416A41F40011416210BC01207047A3
:100E6000416A41F40011416210BC012070470468DE
:100E700054F80C40640D146080E70068C16841F0CC
:100E80002001C160DEE72DE9F05F054600242868F7
:100E90004669D0F804908768D0F80CA0D0F810B05C
:100EA000D0F8188016F0010F54D017F0010F17D0AA
:100EB0000121816017F0020F03D0284600F096FC54
:100EC0000EE017F0040F02D04FF4006408E017F0B2
:100ED000080F02D04FF4805402E0284600F085FC51
:100EE00017F4807F19D029684FF48070886017F458
:100EF000007F03D0284600F07BFC0EE017F4806FE3
:100F000002D044F4005408E017F4006F02D044F417
:100F1000804402E0284600F06AFC17F4803F19D0B4
:100F200029684FF48030886017F4003F03D02846CA
:100F300000F060FC0EE017F4802F02D044F400446F
:100F400008E017F4002F02D044F4803402E0284671
:100F500000F04FFC16F0080F07D01AF0100F04D065
:100F600044F4007429681020C86016F0040F4FF094
:100F7000080707D01AF0080F04D02868C760284671
:100F800000F0ACF916F0020F07D02868C06810F026
:100F9000030F02D0284600F0A3F916F0400F07D047
:100FA0001BF0100F04D044F48064296810200861FD
:100FB00016F0200F07D01BF0080F04D02868076137
:100FC000284600F0DDFB16F0100F07D028680069F6
:100FD00010F0030F02D0284600F0D3FB16F4003FB8
:100FE00008D019F0100F05D0296810204860284655
:100FF00000F0C8FB16F4803F07D019F0080F04D0AA
:1010000028684760284600F0F6FB16F4004F4AD0E7
:1010100019F0040F44D016F4807F04D018F0010FAB
:1010200001D044F0010416F4007F04D018F0020F40
:1010300001D044F0020416F4806F04D018F0040FBD
:1010400001D044F0040416F4006F29D018F0700F9A
:1010500026D008F07000402815D006DC102809D0F2
:1010600020280AD0302816D10AE050280ED0602857
:1010700011D10EE044F008040DE044F010040AE041
:1010800044F0200407E044F0400404E044F080040D
:1010900001E044F480742868816921F07001816165
:1010A000296804204860002C05D0686A20436862E3
:1010B0002846FFF731FEBDE8F09F70B50446002CCE
:1010C00003D094F8200010B104E0012070BD204648
:1010D00000F0A8F82068016841F00101016000F00B
:1010E000CFFE0546206840684FF0050610F0010F5E
:1010F00011D100F0C5FE401B0A2807D9606A40F4F0
:101100000030606284F82060012070BD2068406873
:1011100010F0010FEDD02068016821F0020101609C
:1011200000F0AEFE05462068406810F0020F11D0B6
:1011300000F0A6FE401B0A2807D9606A40F4003080
:10114000606284F82060012070BD2068406810F063
:10115000020FEDD1207E01283FD02068016821F0E8
:1011600080010160607E01283DD02068016821F087
:1011700040010160A07E01283BD02068016821F079
:1011800020010160E07E012839D02068016841F02B
:1011900010010160207F012837D02068016821F00C
:1011A00008010160607F012835D02068016821F0C6
:1011B00004010160E168A068626908432169114384
:1011C00008436168491E08432168C86100206062C5
:1011D000012084F82000002070BD2068016841F0E3
:1011E00080010160BEE72068016841F040010160B4
:1011F000C0E72068016841F020010160C2E7206873
:10120000016821F010010160C4E72068016841F025
:1012100008010160C6E72068016841F0040101602F
:10122000C8E7000010B586B00446142101A8FFF7F6
:1012300073F827492068884248D100BF00200090F9
:101240002448006840F000702249086008460068A1
:1012500000F00070009000BF00BF00BF00200090B1
:101260001C481038006840F001001A491039086025
:101270000846006800F00100009000BF00BF4FF476
:10128000C05001900220029000200390032004909F
:101290000920059001A9104800F0CAFC0022052190
:1012A000132000F0A7FE132000F096FE0022052177
:1012B000142000F09FFE142000F08EFE0022052175
:1012C000152000F097FE152000F086FE06B010BD38
:1012D00000640040403802400000024070470000B7
:1012E0002DE9F0472DED088BAEB08046F649D8F8D1
:1012F000000088427DD125AB27AA0021F348FFF7E3
:101300000CFD0028F6D127981FFA80F9A9F20110E8
:1013100020B101286ED002286DD151E19DF8944092
:101320009DF898509DF897009DF8961040EA012688
:101330009DF89B009DF89A1040EA0127E44820F8A8
:10134000146020F8157033462246E2A115A8CDE9B5
:10135000005704F067FD15A8FEF7E9FF1FFA80FAB1
:10136000524615A9E04802F047FF182C56DA0A2029
:1013700096FBF0F004EB4401DC4A02EB81010881AA
:1013800004EB4400114601EB8000406858B904EBBF
:10139000440001EB8000008904EB440152F8211065
:1013A000096848633AE004EB4400D04901EB80004F
:1013B000406804280CD104EB440001EB8000008954
:1013C00004EB4401C94A52F821100968886325E0FA
:1013D00004EB4400C54901EB80004068082810D1A7
:1013E00004EB440001EB8000008904EB4401BF4A98
:1013F00002E063E168E05FE152F821100968C86328
:101400000CE004EB4400B94901EB8000008904EBD7
:101410004401B64A52F8211009680864182D52DABE
:101420000A2097FBF0F005EB4501B04A02EB810181
:10143000088105EB4500114601EB8000406858B972
:1014400005EB450001EB8000008905EB450152F8F2
:1014500021100968486336E005EB4500A34901EB1C
:101460008000406804280CD105EB450001EB8000AA
:10147000008905EB45019D4A52F8211009688863EF
:1014800021E005EB4500994901EB80004068082800
:101490000CD105EB450001EB8000008905EB45010F
:1014A000924A52F821100968C8630CE005EB450028
:1014B0008E4901EB8000008905EB45018B4A52F80B
:1014C000211009680864F7E09DF895009DF89410D4
:1014D00040EA012000B2ADF818009DF897009DF891
:1014E000961040EA012000B2ADF81A009DF899006C
:1014F0009DF8981040EA012000B2ADF81C009DF85C
:101500009B009DF89A1040EA012000B2ADF81E0041
:10151000002014E006A931F9101000EE101AF8EEC0
:10152000C00A9FED731A80EE810ADFED720A20EE89
:10153000200A0BA901EB800181ED000A401C042860
:10154000E8DB9DED0E0A10EE101A0846FFF77EF854
:1015500041EC180B9DED0D0A10EE101A0846FFF72E
:1015600075F841EC190B9DED0C0A10EE101A0846A7
:10157000FFF76CF841EC1A0B9DED0B0A10EE101AF8
:101580000846FFF763F841EC1B0B8DED048B8DEDE6
:10159000029B8DED00AB53EC1B2B57A115A804F05B
:1015A00041FC15A8FEF7C3FE84B2224615A9624885
:1015B00002F022FE4FF48051604800F051FC7BE0C5
:1015C0009DF895009DF8941040EA012000B2ADF816
:1015D00018009DF897009DF8961040EA012000B28F
:1015E000ADF81A009DF899009DF8981040EA012086
:1015F00000B2ADF81C009DF89B009DF89A1040EADF
:10160000012000B2ADF81E00002014E006A931F957
:10161000101000EE101AF8EEC00A9FED351A80EE99
:10162000810ADFED340A20EE200A0BA901EB8001CC
:1016300081ED000A401C0428E8DB9DED0E0A10EE47
:10164000101A0846FFF702F841EC180B9DED0D0A41
:1016500010EE101A0846FEF7F9FF41EC190B9DED4C
:101660000C0A10EE101A0846FEF7F0FF41EC1A0BB8
:101670009DED0B0A10EE101A0846FEF7E7FF41EC4D
:101680001B0B8DED048B8DED029B8DED00AB53ECB0
:101690001B2B2BA115A804F0C5FB15A8FEF747FED0
:1016A00084B2224615A9244802F0A6FD4FF48051C9
:1016B000224800F0D5FB00BF00BF00BF2EB0BDEC3C
:1016C000088BBDE8F0870000006400403807002068
:1016D000D80600207025643A25642C207025643AD1
:1016E00025640D0A00000000A00C0020200000204E
:1016F0000000004600003443616E676C65312D3197
:101700003A252E33662C20616E676C65312D323A96
:10171000252E33662C20616E676C65312D333A259A
:101720002E33662C20616E676C65312D343A252E80
:1017300033660D0A000000005C0C0020001402401B
:10174000616E676C65322D313A252E33662C20612F
:101750006E676C65322D323A252E33662C20616E11
:10176000676C65322D333A252E33662C20616E6707
:101770006C65322D343A252E33660D0A00000000C8
:1017800070477047704770B5044694F820000128F0
:1017900005D0606A40F400206062012070BD022024
:1017A00084F820002068016821F00101016000F048
:1017B00067FB05462068406810F0010F12D000F06A
:1017C0005FFB401B0A2808D9606A40F40030606261
:1017D000052084F82000012070BD2068406810F0CA
:1017E000010FECD10020606270BD704770477047F8
:1017F00070477047704770472DE9F0410446A66D69
:1018000000F03EFB054694F835000027022806D07C
:101810008020606584F834700120BDE8F081206884
:10182000016821F0160101602068416921F0800102
:101830004161206C08B9A06C20B12068016821F0DA
:10184000080101602068016821F001010160206841
:10185000006810F0010F12D000F012FB401B0528A9
:1018600008D920206065032084F8350084F834709E
:10187000BDE8F0812068006810F0010FECD194F809
:101880005C003F2101FA00F0B060012084F83500CF
:1018900084F834700020BDE8F08190F835100229FA
:1018A00003D08021416501207047052180F8351063
:1018B0000068016821F0010101600020704700000C
:1018C0002DE9F84304464FF00008CDF80080764833
:1018D0004FF416510068B0FBF1F7A56D2E6894F82F
:1018E0005C00082101FA00F0304211D02068026843
:1018F00012F0040F0CD0026822F00402026094F887
:101900005C0001FA00F0A860606D40F001006065C5
:1019100094F85C004FF0010909FA00F0304209D058
:101920002168496911F0800F04D0A860606D40F013
:101930000200606594F85C1004208840304209D0B1
:101940002168096811F0020F04D0A860606D40F0B2
:101950000400606594F85C1010208840304224D068
:101960002168096811F0080F1FD0A860206801687D
:1019700011F4802F0DD0006810F4002F04D0A16C5A
:1019800099B12046884710E0216C71B12046884704
:101990000BE0016811F4807F03D1016821F0080198
:1019A0000160216C09B12046884794F85C10202022
:1019B0008840304251D02168096811F0100F4CD096
:1019C000A86094F8350005280DD02068016811F44E
:1019D000802F32D0006810F4002F29D0E16B59B36A
:1019E0002046884739E02068016821F0160101602F
:1019F0002068416921F080014161206C08B9A06C28
:101A000020B12068016821F00801016094F85C00B1
:101A10003F2101FA00F0A86084F8359084F8348002
:101A2000216D00293ED001B02046BDE8F0430847B3
:101A3000616C09B1204688470FE0016811F4807F8E
:101A400007D1016821F01001016084F8359084F815
:101A50003480E16B09B120468847606D002821D0B1
:101A6000606D10F0010F15D0052084F83500206856
:101A7000016821F0010101600098401C0090B8420B
:101A800004D82068006810F0010FF5D184F8359073
:101A900084F83480E16C002904D001B02046BDE810
:101AA000F0430847BDE8F883980100202DE9F04194
:101AB000044600F0E5F90546DCB1022084F8350063
:101AC000002684F834602068016821F0010101607B
:101AD0002068006810F0010F13D000F0D1F9401B0E
:101AE000052809D920206065032084F83500BDE869
:101AF000F0810120BDE8F0812068006810F0010F3E
:101B0000EBD121680868234A1040A3686268D4F8C2
:101B100010C01A43E36843EA0C031A4363691A438B
:101B2000A3691A43E3691A43236A1A431043626A9A
:101B3000042A03D1236BE26A1A4310430860206829
:101B4000406920F00701606A40EA01050127042886
:101B50000ED1A06A0543E06A50B12046FEF754FF5B
:101B600030B14020606584F835700120BDE8F08117
:101B7000206845612046FEF72DFF94F85C103F2257
:101B800002FA01F18160666584F835700020BDE8D5
:101B9000F08100003F8010F070B504460025A66D6E
:101BA00094F8340001280DD0012084F8340094F812
:101BB00035C00020BCF1010F06D084F834000225A6
:101BC000284670BD022070BD4FF0020C84F835C06D
:101BD00060652046FEF757FF94F85C003F2101FA4C
:101BE00000F0B0602068016841F016010160206CCF
:101BF00020B12068016841F0080101602068016897
:101C000041F001010160DBE770B5044600F038F9EE
:101C10000546B4F1FF3F02D004480078044400F0C8
:101C20002FF9401BA042FAD370BD00008C010020A8
:101C30002DE9F84F0022DFF81492DFF814A2DFF844
:101C400014B24FF0010E03274FF00F080EFA02FCFA
:101C50000B6803EA0C0363457DD10C7904F003049F
:101C6000012C01D0022C14D18568540007FA04F627
:101C7000B543CE6806FA04F42C438460446824EA31
:101C80000C0C0C79C4F30014944044EA0C0CC0F81A
:101C900004C0D1F804C037EA0C0C0CD0C4684FEA79
:101CA000420C07FA0CF5AC438D6805FA0CFC4CEAC3
:101CB000040CC0F80CC091F804C00CF0030CBCF18B
:101CC000020F12D14FEAD20C00EB8C04256A4FEAC6
:101CD000427C4FEADC6C08FA0CF6B5430E6906FA52
:101CE0000CFC4CEA050CC4F820C004684FEA420C16
:101CF00007FA0CF5AC430D7905F0030505FA0CFC69
:101D00004CEA040CC0F800C0D1F804C01CF4403FF9
:101D10007DD0D9F800C04CF4804CC9F800C0D9F887
:101D200000C00CF4804CCDF800C022F0030C0CF184
:101D3000804505F59835D5F808C89407240F08FAAA
:101D400004F62CEA0606A0F1804CBCF5003C64D0F9
:101D5000A0F1804C00E05AE0BCF5013C60D0A0F15D
:101D6000804CBCF5023C5ED0A0F1804CBCF5033C3D
:101D70005CD0A0F1804CBCF5043C5AD0A0F1804C62
:101D8000BCF5053C58D0A0F1804CBCF5063C56D0C3
:101D9000A0F1804CBCF5073C54D04FF0080C0CFA75
:101DA00004FC4CEA060CC5F808C8DAF800C02CEAB6
:101DB000030C4C6814F4803F01D04CEA030CCAF8C1
:101DC00000C0254CD4F800C02CEA030C4D6815F473
:101DD000003F01D04CEA030CC4F800C0DBF800C09F
:101DE0002CEA030C4C6814F4801F01D04CEA030C5D
:101DF000CBF800C0194CD4F800C02CEA030C4D6895
:101E000015F4001F01D04CEA030CC4F800C0521CAA
:101E1000102AFFF41BAFBDE8F88F4FF0000CBEE7AF
:101E20004FF0010CBBE74FF0020CB8E74FF0030C8A
:101E3000B5E74FF0040CB2E74FF0050CAFE74FF0F9
:101E4000060CACE74FF0070CA9E70000443802404D
:101E5000003C0140083C0140043C01400C3C014076
:101E6000426921EA0203114043EA0141816170475E
:101E7000002A01D081617047090481617047000028
:101E800001488068704700008C010020024881688A
:101E900002781144816070478C01002010B50B4816
:101EA000016841F400710160016841F480610160E2
:101EB000016841F480710160032000F0CFF80F2029
:101EC00000F006F800F05EF8002010BD003C024073
:101ED0002DE9F04188B004460027B84600BF002035
:101EE00001902348006840F020002149086008461E
:101EF000006800F02000019000BF00BF02A903A805
:101F000000F07CF9069F1FB900F09CF9054602E03D
:101F100000F098F945001748B5FBF0F0A0F1010872
:101F200015481649086040F2E7311448C160C0F80E
:101F30000480002101618160816100F009FF064693
:101F400096B90E4801F042F806466EB9372000F007
:101F500043F8102C07D200222146372000F04AF81F
:101F60000748046000E00126304608B0BDE8F08173
:101F70004038024040420F0000140040640E002030
:101F80009001002008B500BF0020009011480068B3
:101F900040F480400F4908600846006800F4804023
:101FA000009000BF00BF00BF00200090081F006825
:101FB00040F08050091F08600846006800F080501B
:101FC000009000BF00BF00220F21901E00F012F809
:101FD00008BD00004438024000280ADB00F01F0161
:101FE000012202FA01F14009800000F1E020C0F86E
:101FF0000011704710B4184B1B68C3F30223C3F1E0
:10200000070CBCF1040F01D94FF0040C1C1D072C68
:1020100001D2002300E0DB1E012404FA0CFCACF129
:10202000010C0CEA0101994004FA03F35B1E1A400B
:102030001143002806DB00F1E020090180F80014BC
:1020400010BC704700F00F0000F1E020090180F89B
:10205000141D10BC704700000CED00E000F00700FC
:10206000064A11684FF6FF03194041EA002040F08C
:10207000FD7040F080601060704700000CED00E0E3
:102080002DE9F04704460D46002C13D0DFF854919B
:10209000D9F80000EFB200F00700A8420DD289F88D
:1020A0000070D9F8000000F00700A84205D0012018
:1020B000BDE8F0870120BDE8F08720684A4E10F0A7
:1020C000020F14D010F0040F03D0306840F4E05039
:1020D0003060207810F0080F03D0306840F4604082
:1020E00030603068A16820F0F0000843306020784C
:1020F00010F0010F3ED060683C49012808D002284A
:102100000DD003280BD0096811F0020F28D00AE087
:10211000096811F4003F06D10120BDE8F087096885
:1021200011F0007F19D0316821F0030108433060BD
:10213000FFF7A6FE80463068616800F00C00B0EB47
:10214000810F17D041F2883AFFF79AFEA0EB080002
:10215000504508D90320BDE8F0870120BDE8F0878D
:102160000120BDE8F0873068616800F00C00B0EB3A
:10217000810FE9D1D9F8000000F00700A8420AD980
:1021800089F80070D9F8000000F00700A84202D0DA
:102190000120BDE8F087207810F0040F05D03068EA
:1021A000E16820F4E05008433060207810F0080F18
:1021B00006D03068216920F4604040EAC1003060F8
:1021C00000F060F831680A4AC1F30311515CC8405D
:1021D0000849086008480068FFF77AFE0020BDE85B
:1021E000F0870000003C02400838024000380240FE
:1021F0002883000898010020900100200F2202602F
:102200000B4A136803F003034360136803F0F00301
:102210008360136803F4E053C360126802F4604201
:10222000D20802610348006800F0070008607047A8
:1022300008380240003C0240014800687047000036
:102240009801002000B5FFF7F7FF04490968044A28
:10225000C1F38221515CC84000BD00000838024033
:102260003883000800B5FFF7E7FF04490968044A0E
:10227000C1F34231515CC84000BD00000838024043
:102280003883000810B51748006810F00C01164894
:1022900016D04310042912D0082911D1134C2168FB
:1022A00001F03F02216811F4800F0AD02068C0F3CA
:1022B0008810A0FB03010023FDF7E4FF09E01846A6
:1022C00010BD21680023C1F38811A1FB0001FDF7B7
:1022D000D9FF2168C1F30141491C4900B0FBF1F06D
:1022E00010BD0000083802400024F4000438024009
:1022F0002DE9F84F0446002C12D02078FB4E10F048
:10230000010FA6F1040563D0301D016801F00C0136
:1023100004290CD0006800F00C00082803D010E05D
:102320000120BDE8F88F306810F4800F09D02868CC
:1023300010F4003F4CD06068002849D10120BDE86E
:10234000F88F6068B0F5803F14D0B0F5A02F16D09C
:10235000286820F480302860286820F480202860D5
:10236000606810B3FFF78CFD0746286810F4003F43
:102370000ED02DE0286840F480302860F0E728680F
:1023800040F480202860286840F480302860E7E727
:10239000FFF776FDC01B642802D90320BDE8F88F43
:1023A000286810F4003FF3D012E0FFF769FD0746FC
:1023B000286810F4003F0BD0FFF762FDC01B6428B3
:1023C00002D90320BDE8F88F286810F4003FF3D14C
:1023D0002078C74F10F0020F4FF0000957D0C548C2
:1023E000016811F00C0F14D0006800F00C000828F0
:1023F00003D1306810F4800F0BD0E06880B3012067
:102400003860FFF73DFD8046286810F0020F12D0BB
:102410001EE0286810F0020F05D0E068012802D005
:102420000120BDE8F88F2868216920F0F80040EA13
:10243000C10028602BE0FFF723FDA0EB0800022875
:1024400002D90320BDE8F88F286810F0020FF2D0FF
:102450002868216920F0F80040EAC100286016E0F1
:10246000FFE7C7F80090FFF70BFD8046286810F0E3
:10247000020F0CD0FFF704FDA0EB0800022802D9E0
:102480000320BDE8F88F286810F0020FF2D1207801
:1024900010F0080F35D09848DFF860A26169C1B12B
:1024A00001210160FFF7ECFC8046DAF8000010F033
:1024B000020F26D1FFF7E4FCA0EB0800022802D9A6
:1024C0000320BDE8F88FDAF8000010F0020FF1D019
:1024D00017E0C0F80090FFF7D3FC8046DAF8000060
:1024E00010F0020F0DD0FFF7CBFCA0EB0800022884
:1024F00002D90320BDE8F88FDAF8000010F0020FCF
:10250000F1D1207810F0040F71D04FF000087C4812
:10251000006810F0805F0AD17948016841F080516D
:102520000160006800F0805000904FF00108DFF873
:10253000D4B1DBF8000010F4807F1BD1DBF8000081
:1025400040F48070CBF80000FFF79AFC8246DBF87D
:10255000000010F4807F0DD1FFF792FCA0EB0A0081
:10256000022802D90320BDE8F88FDBF8000010F440
:10257000807FF1D0A068DFF890B1012818D005283D
:102580001DD0DBF8000020F00100CBF80000DBF8E4
:10259000000020F00400CBF80000A06840B3FFF773
:1025A0006FFC8246DBF8000010F0020F14D03EE012
:1025B000DBF8000040F00100CBF80000EDE7DBF8AD
:1025C000000040F00400CBF80000DBF8000040F011
:1025D0000100CBF80000E0E7FFF752FCA0EB0A0196
:1025E00041F28830814204D90320BDE8F88F26E00B
:1025F00005E0DBF8000010F0020FEDD017E0FFF768
:102600003FFC8246DBF8000010F0020F0FD0FFF70E
:1026100037FCA0EB0A0141F28830814202D9032045
:10262000BDE8F88FDBF8000010F0020FEFD1B8F131
:10263000010F04D13248016821F080510160A06986
:10264000F0B32C4909684FF0FF3801F00C0108295C
:1026500066D0022810D0C7F86090FFF711FC04463E
:10266000286810F0007F2BD0FFF70AFC001B02281F
:1026700051D90320BDE8F88FC7F86090FFF700FC40
:102680008146286810F0007F0CD0FFF7F9FBA0EB23
:102690000900022802D90320BDE8F88F286810F04D
:1026A000007FF2D1216AE069A26A0843616A08EBFF
:1026B0005202890141EA0241084394F82C1000E0DB
:1026C00055E040EA0160306001203866FFF7D8FB32
:1026D0000446286810F0007F49D1FFF7D1FB001BAA
:1026E000022813D90320BDE8F88F00000438024007
:1026F0000000474208380240800E474274380240CA
:10270000403802400070004070380240286810F0E5
:10271000007FE2D02BE0286810F0007FA4D126E0F3
:10272000012822D03068E26900F4800191421AD178
:10273000226A00F03F01914215D147F6C071626AEA
:102740000140B1EB821F0ED1A26A00F4403108EBC8
:102750005202B1EB024F06D194F82C1000F07060D9
:10276000B0EB016F03D00120BDE70120BBE70020E3
:10277000B9E770B50446002C09D0606A002540B165
:1027800025616561A56294F8510040B10CE001201B
:1027900070BD6068B0F5827FF4D0E561F2E784F83F
:1027A0005050204600F044F8022084F85100206880
:1027B000016821F040010160A088218900F4827045
:1027C00001F404410843A18901F400610843217C1C
:1027D00001F002010843217D01F001010843218B32
:1027E00001F400710843217F01F03801084394F897
:1027F000201001F080010843218D01F400510843AD
:1028000021680860A169042000EA114094F82410AE
:1028100001F010010143206841602068C16921F482
:102820000061C1616565012084F85100002070BD20
:1028300010B586B00446142101A8FDF76DFD1B49B3
:102840002068884230D100BF0020009018480068FE
:1028500040F40040164908600846006800F4004053
:10286000009000BF00BF00BF00200090104810384B
:10287000006840F004000E491039086008460068FE
:1028800000F00400009000BF00BF4FF4E050019042
:10289000022002900020039003200490062005905F
:1028A00001A90448FFF7C4F906B010BD003C004080
:1028B00040380240000802402DE9F84F04468B469C
:1028C00092461D46002694F8500001280DD04FF086
:1028D000010984F85090FFF7D3FA074694F85100A5
:1028E000B046012804D00226ADE00220BDE8F88FF2
:1028F000BBF1000F1CD05FEA0A0019D0032084F856
:102900005100C4F85480C4F830B0A4F834A0A4F83E
:1029100036A0C4F83880A4F83C80A4F83E80C4F8FF
:102920004480C4F84080A068B0F5004F02D00BE0AE
:10293000012688E02068016821F0400101602068DC
:10294000016841F4804101602068016811F0400F86
:1029500003D1016841F040010160E068B0F5006F0B
:1029600005D0606888B3BAF1010F31D03AE06068F1
:1029700010B1BAF1010F09D1206B21680088C8603D
:10298000206B801C2063E08E401EE086E08E0028D5
:1029900045D02068816811F0020F09D0216B0988A9
:1029A000C160206B801C2063E08E401EE08608E042
:1029B000FFF766FAC01BA84202D3B5F1FF3F05D16D
:1029C00025B1E08E0028E4D129E001E003263AE0B9
:1029D000206B216800780873206B401C2063E08E18
:1029E000401EE086E08ED0B12068816811F0020FB1
:1029F00009D0216B09780173206B401C2063E08EA5
:102A0000401EE08608E0FFF73BFAC01BA84202D355
:102A1000B5F1FF3F0ED16DB1E08E0028E4D13A460A
:102A20002946204602F0B8FB08B120206065A06866
:102A300010B105E0032606E02068C16880680090B8
:102A4000606D00B1012684F8519084F850803046C2
:102A5000BDE8F88F2DE9F84F04460A9E8A46934652
:102A60001F4601254FF0000894F8500001280ED0B1
:102A7000012084F85000FFF703FA814694F85100D2
:102A8000616801280ED0B1F5827F07D102E00220F3
:102A9000BDE8F88FA16809B9042803D04FF00208F7
:102AA00000F0CBB8BAF1000F1DD0BBF1000F1AD067
:102AB000380018D094F85100042802D0052084F87A
:102AC000510000206065C4F838B0E787A787C4F8D4
:102AD00030A0E786A786206460642068016811F052
:102AE000400F03D006E04FF00108A6E0016841F076
:102AF00040010160E068B0F5006F05D06068002813
:102B000048D0012F46D07EE0606808B1012F3AD14D
:102B1000206B21680088C860206B801C2063E08ED9
:102B2000401EE0862FE02068816811F0020F0DD072
:102B3000E18E59B1012D09D1216B0988C160206B4B
:102B4000801C2063E08E401EE0860025206881689E
:102B500011F0010F0BD0E18F49B1C068A16B088063
:102B6000A06B801CA063E08F401EE0870125FFF76B
:102B700087F9A0EB0900B04205D3B6F1FF3F02D0C0
:102B80004FF0030859E0E08E0028CCD1E08F0028F8
:102B9000C9D13EE0206B216800780873206B401C8F
:102BA0002063E08E401EE0862DE02068816811F0F1
:102BB000020F0DD0E18E59B1012D09D1216B097899
:102BC0000173206B401C2063E08E401EE0860025D0
:102BD0002068816811F0010F0BD0E18F49B1C06806
:102BE000A16B0870A06B401CA063E08F401EE087C3
:102BF0000125FFF745F9A0EB0900B04202D3B6F179
:102C0000FF3F11D186B1E08E0028CED1E08F0028A1
:102C1000CBD14A463146204602F0BEFA38B14FF0D9
:102C200001082020606508E04FF0030805E0A06877
:102C300018B92068C16880680090012084F85100AC
:102C4000002084F850004046BDE8F88F7047704778
:102C500090F83C20012A2CD0012280F83C20CA6840
:102C60000023D1F808C022F4407242EA0C02D1F8E5
:102C700004C022F4806242EA0C02D1F800C022F4BF
:102C8000006242EA0C02D1F810C022F4805242EAFB
:102C90000C02D1F814C022F4005242EA0C02C969B5
:102CA00022F4804211430268516480F83C300020D5
:102CB00070470220704730B490F83C20012A44D07D
:102CC000012480F83C40022280F83D200268D2F8BE
:102CD00004C093682CF0700C0D6845EA0C0CC2F827
:102CE00004C00268A2F1804CBCF5803C20D0B2F157
:102CF000804F1DD0A2F1804CBCF5806C18D0A2F1A1
:102D0000804CBCF5006C13D0A2F1804CBCF5406C3B
:102D10000ED0A2F1804CBCF5823C09D0A2F1804CCF
:102D2000BCF5A03C04D0A2F1804CBCF5C05C04D141
:102D300023F0800349681943916080F83D400021E9
:102D400080F83C1030BC0020704730BC0220704737
:102D500010B50446002C03D094F83D0010B107E0F4
:102D6000012010BD002084F83C00204600F01EF831
:102D7000022084F83D00211D206802F09FFC012004
:102D800084F8460084F83E0084F83F0084F8400050
:102D900084F8410084F8420084F8430084F8440039
:102DA00084F8450084F83D00002010BD08B55E4A57
:102DB000016891420FD100BF002100915B49096871
:102DC00041F00101594A11601146096801F0010101
:102DD000009100BFA7E00168B1F1804F11D100BFA1
:102DE000002100915149091F096841F001014F4A32
:102DF000121F11601146096801F00101009100BF26
:102E000091E04B4A0168914211D100BF002100912D
:102E10004649091F096841F00201444A121F116026
:102E20001146096801F00201009100BF7BE0414AB0
:102E30000168914211D100BF002100913B49091F57
:102E4000096841F00401394A121F116011460968EE
:102E500001F00401009100BF65E0374A016891422A
:102E60000FD100BF002100913049096841F00201F3
:102E70002E4A11601146096801F00201009100BF5D
:102E800051E02E4A016891420FD100BF002100910C
:102E90002649096841F48031244A116011460968C5
:102EA00001F48031009100BF3DE0254A0168914264
:102EB0000FD100BF002100911C49096841F4003185
:102EC0001A4A11601146096801F40031009100BFEF
:102ED00029E01C4A016891420FD100BF00210091F6
:102EE0001249096841F48021104A116011460968AD
:102EF00001F48021009100BF15E0134A016891425E
:102F000011D100BF002100910849091F096841F053
:102F10004001064A121F11601146096801F0400184
:102F2000009100BF00BF08BD0000014044380240CE
:102F3000000400400008004000040140004001403F
:102F400000440140004801400018004090F83D1046
:102F5000012901D001207047022180F83D1000684E
:102F6000A0F18041B1F5803126D0B0F1804F23D05F
:102F7000A0F18041B1F580611ED0A0F18041B1F592
:102F8000006119D0A0F18041B1F5406114D0A0F1E9
:102F90008041B1F582310FD0A0F18041B1F5A0316F
:102FA0000AD0A0F18041B1F5C05105D0016841F0CF
:102FB0000101016000207047816801F007010629C6
:102FC000F8D0016841F001010160F3E790F83D108D
:102FD000012901D001207047022180F83D100168CD
:102FE000CA6842F00102CA600068A0F18041B1F5F0
:102FF000803126D0B0F1804F23D0A0F18041B1F5CF
:1030000080611ED0A0F18041B1F5006119D0A0F11E
:103010008041B1F5406114D0A0F18041B1F5823119
:103020000FD0A0F18041B1F5A0310AD0A0F18041CC
:10303000B1F5C05105D0016841F0010101600020E7
:103040007047816801F007010629F8D0016841F056
:1030500001010160F3E770B50446002594F83C00D7
:10306000012818D0012684F83C60022084F83D0035
:103070002068826822F0770222F47F42826008682A
:10308000502839D00EDC202854D006DC002851D03E
:10309000102811D14EE0022070BD30284AD04028BF
:1030A0000AD13DE0602831D070280DD0B0F5805FA6
:1030B00003D0B0F5005F13D0012584F83D600020F7
:1030C00084F83C00284670BDCB684A68896820684F
:1030D00002F069FB2068816841F077018160ECE7CC
:1030E000CB684A688968206802F05DFB20688168C7
:1030F00041F480418160E0E7CA684968206802F0D5
:1031000041FC5021206802F059FBD6E7CA684968A3
:10311000206802F04AFC6021206802F04FFBCCE7F7
:10312000CA684968206802F02DFC4021206802F03E
:1031300045FBC2E722680146104602F03FFBBCE7B0
:10314000704770B50446206801694FF0000511F022
:10315000020F17D0C16811F0020F13D0E91E0161F0
:10316000012020772068806910F0030F03D02046EB
:10317000FFF7E6FF05E0204600F016FA204600F0D3
:10318000AFFA25772068016911F0040F18D0C168E3
:1031900011F0040F14D06FF00401016102202077B8
:1031A0002068806910F4407F03D02046FFF7C8FFF5
:1031B00005E0204600F0F8F9204600F091FA257766
:1031C0002068016911F0080F18D0C16811F0080FCC
:1031D00014D06FF008010161042020772068C069D5
:1031E00010F0030F03D02046FFF7AAFF05E02046AA
:1031F00000F0DAF9204600F073FA257720680169BB
:1032000011F0100F18D0C16811F0100F14D06FF02A
:1032100010010161082020772068C06910F4407F08
:1032200003D02046FFF78CFF05E0204600F0BCF9F4
:10323000204600F055FA25772068016911F0010F4A
:1032400009D0C16811F0010F05D06FF001010161D3
:10325000204600F0B5FA2068016911F0800F09D00E
:10326000C16811F0800F05D06FF080010161204628
:10327000FFF7ECFC2068016911F0400F09D0C1682C
:1032800011F0400F05D06FF040010161204600F0C1
:10329000A3FA2068016911F0200F0BD0C16811F06A
:1032A000200F07D06FF0200101612046BDE870407B
:1032B000FFF7CDBC70BD000010B586B004461421E8
:1032C00001A8FDF729F8AA49206888421ED100BF4D
:1032D00000200090A748006840F01000A549086051
:1032E0000846006800F01000009000BF00BF4FF4D7
:1032F000D44001900220029000200390049001200D
:10330000059001A99C48FEF793FC2FE12068B0F1DD
:10331000804F3BD100BF002000909648006840F0ED
:103320000200944908600846006800F0020000901E
:1033300000BF00BF00BF002000900846006840F0BA
:10334000010008600846006800F00100009000BF1E
:1033500000BF40F608400190022002900020039038
:1033600004900120059001A98448FEF761FC4FF408
:103370000040019002200290002003900490012060
:10338000059001A97E48FEF753FCEFE07D492068D7
:1033900088421DD100BF002000907648006840F0B0
:1033A0000200744908600846006800F002000090BE
:1033B00000BF00BF30200190022002900020039047
:1033C00004900220059001A96C48FEF731FCCDE085
:1033D0006D49206888421ED100BF002000906548DA
:1033E000006840F00800634908600846006800F083
:1033F0000800009000BF00BF4FF470400190022011
:1034000002900020039004900220059001A95F48DB
:10341000FEF70EFCAAE05E49206888421ED100BF7C
:10342000002000905348006840F0040051490860B3
:103430000846006800F00400009000BF00BF4FF491
:1034400070700190022002900020039004900320ED
:10345000059001A94F48FEF7EBFB87E04E49206835
:1034600088421DD100BF002000904248006840F013
:103470001000404908600846006800F01000009005
:1034800000BF00BF60200190022002900020039046
:1034900004900320059001A93748FEF7C9FB65E0B9
:1034A0003E49206888421DD100BF0020009031486D
:1034B000006840F002002F4908600846006800F0EC
:1034C0000200009000BF00BF88150190022002900A
:1034D0000020039004900320059001A92748FEF7DF
:1034E000A7FB43E02E49206888421DD100BF002081
:1034F00000902048006840F002001E49086008461D
:10350000006800F00200009000BF00BF4815019065
:10351000022002900020039004900320059001A94E
:103520001648FEF785FB21E01E49206888421DD120
:1035300000BF002000900F48006840F002000D49D5
:1035400008600846006800F00200009000BF00BF5D
:103550004FF440400190022002900020039004901C
:103560000920059001A90548FEF762FB06B010BDD1
:1035700000000140303802400010024000040240C8
:10358000000002400004004000080040000C02401F
:103590000004014000080240004001400044014096
:1035A0000048014000180040704770B504460D46C1
:1035B000002694F83C0001280FD0012084F83C003C
:1035C0006AB1042A1FD0082A32D00C2A44D001261E
:1035D000002084F83C00304670BD022070BD2946B2
:1035E000206802F0F3F82068816941F008018161E8
:1035F0002068816921F004018161206881692A695C
:1036000011438161E4E72946206802F017F9206838
:10361000816941F4006181612068816921F48061E0
:103620008161206881692A6941EA02218161CFE7CD
:103630002946206802F03EF92068C16941F008017E
:10364000C1612068C16921F00401C1612068C169BC
:103650002A691143C161BBE72946206802F066F977
:103660002068C16941F40061C1612068C16921F429
:103670008061C1612068C1692A6941EA0221C16192
:10368000A6E710B50446002C03D094F83D0010B115
:1036900007E0012010BD002084F83C00204600F027
:1036A0001EF8022084F83D00211D206802F006F873
:1036B000012084F8460084F83E0084F83F0084F836
:1036C000400084F8410084F8420084F8430084F804
:1036D000440084F8450084F83D00002010BD704788
:1036E0007047000010B50446002909D004290AD00B
:1036F00008290BD094F8410001280AD0012010BD00
:1037000094F83E00F8E794F83F00F5E794F840009D
:10371000F2E70220D9B3042947D0082948D084F819
:1037200041000122206802F02FF8234A2068234933
:10373000904201D0884203D1436C43F40043436478
:103740002068904224D0B0F1804F21D0A0F1804277
:10375000B2F580621CD0A0F18042B2F5006217D0B1
:10376000A0F18042B2F5406212D0884210D0A0F1A0
:103770008041B1F5A0310BD0A0F18041B1F5C0512D
:1037800006D0016841F001010160002010BD09E090
:10379000816801F007010629F7D0016841F00101B5
:1037A0000160F2E784F83E00BBE784F83F00B8E729
:1037B00084F84000B5E7000000000140000401402B
:1037C00010B5044603492068884201D1FEF75EFB2C
:1037D00010BD0000001400407047704770470000A3
:1037E000F8B5044622681068D168536900F00F0CE0
:1037F000BCF1000F0AD110F0200F07D011F0200FFC
:1038000004D02046BDE8F84002F077B90025BCF1AD
:10381000000F75D003F0010C01F490765CEA060607
:103820006ED010F0010F06D011F4807F03D0226C0F
:1038300042F00102226410F0040F06D013F0010FD1
:1038400003D0226C42F00202226410F0020F06D074
:1038500013F0010F03D0226C42F00402226410F036
:10386000080F08D001F0200252EA0C0203D0226CAB
:1038700042F008022264226C002A35D010F0200F9A
:1038800005D011F0200F02D0204602F036F9206852
:103890004069C0F38010216C11F0080F00D148B3CB
:1038A000204602F0E8F82068406910F0400F1CD074
:1038B0002068143050E8001F21F0400140E8001259
:1038C000002AF5D1A06B60B15C490165A06BFDF7E2
:1038D000E4FF002808D0A06B016D01B0BDE8F04006
:1038E00008472046FFF77AFFF8BD2046FFF776FF2E
:1038F000F8BD05E0FFE72046FFF770FF2564F8BD3F
:10390000236B012B7ED110F0100F7BD011F0100F24
:103910007ED010685068009050694FF0200310F07E
:10392000400F43D0A16B0868406880B20028E6D001
:10393000A28D8242E3D9E085C869B0F5807F2DD0A1
:1039400020680C3050E8001F21F4807140E800121C
:10395000002AF5D12068143050E8001F21F0010141
:1039600040E80012002AF5D12068143050E8001F0A
:1039700021F0400140E80012002AF5D184F83E30E1
:10398000256320680C3050E8001F21F0100140E84A
:103990000012002AF5D1A06BFDF72EFFA08DE18D5E
:1039A000401A81B22046FFF718FFF8BDA08DE18DC7
:1039B000401A81B2E08D0028F7D00029F5D02068A8
:1039C0000C3050E8002F22F4907240E8002CBCF13B
:1039D000000FF4D12068143050E8002F22F00102CB
:1039E00040E8002CBCF1000FF4D184F83E30256390
:1039F00020680C3050E8002F22F0100240E800232D
:103A0000002B00E004E0F3D12046FFF7E6FEF8BD0E
:103A100010F0800F07D011F0800F04D02046BDE8D1
:103A2000F84002F068B910F0400FF0D011F0400FEC
:103A3000EDD02046BDE8F84002F044B8CF59000868
:103A400070B50446002C04D094F83D00002510B158
:103A500006E0012070BD84F83C50204600F022F8BA
:103A6000242084F83D002068C16821F40051C16021
:103A7000204602F0A7F82068016921F49041016115
:103A80002068416921F02A0141612068C16841F440
:103A90000051C1602564202084F83D0084F83E0078
:103AA000002070BD10B586B00446142101A8FCF7B3
:103AB00033FC7E492068884276D100BF0020009008
:103AC0007B48006840F010007949086008460068AB
:103AD00000F01000009000BF00BF00BF0020009069
:103AE00073481438006840F00100714914390860C7
:103AF0000846006800F00100009000BF00BF4FF4CE
:103B0000C0600190022002900020039003200490E6
:103B10000720059001A96748FEF78AF866486749BB
:103B200008604FF000604860002164488160C16017
:103B30004FF480610161002141618161C1610162D5
:103B40004162FDF7B3FF08B1FCF7BAFF00BF5B4865
:103B5000A063846300BF58487830594908604FF02B
:103B6000006048604021564881600021C1604FF4E8
:103B700080610161002141618161C1610162416235
:103B8000FDF794FF08B1FCF79BFF00BF4C48606352
:103B9000846300BF002205212520FEF72BFA252093
:103BA000FEF71AFA80E0FFE74649206888427BD199
:103BB00000BF002000903E48001F006840F4003025
:103BC0003B49091F08600846006800F40030009077
:103BD00000BF00BF00BF00200090354814380068C7
:103BE00040F008003249143908600846006800F0C7
:103BF0000800009000BF00BF6020019002200290EA
:103C000000200390032004900720059001A92E486E
:103C1000FEF70EF82D482E4908604FF0006048600E
:103C200000212B488160C1604FF480610161002157
:103C3000416181614FF48071C16100210162416283
:103C4000FDF734FF08B1FCF73BFF00BF2048A0633D
:103C5000846300BF1D4818301E4908604FF00060A3
:103C6000486040211B4881600021C1604FF48061A1
:103C700001610021416181614FF48071C1610021C6
:103C800001624162FDF712FF08B1FCF719FF00BFA6
:103C900010486063846300BF002205212620FEF7E0
:103CA000A9F92620FEF798F906B010BD00100140D2
:103CB000443802400000024040640240E40C00200E
:103CC000440D002000440040000C02408860024087
:103CD000A40D0020040E002090F83E30202B01D0CF
:103CE0000220704759B152B190F83C30012B08D0F6
:103CF000012380F83C300023036301F0E1BF012081
:103D00007047022070470000F8B50546FE49286854
:103D100088426FD1FD480078422804D046281BD045
:103D20004C2828D109E0FA48007828B94220F949FE
:103D300008708120F649087083E0F54800788128F2
:103D400006D18220F24908704C20F249487002E006
:103D50000020EF49087074E0ED480078822806D111
:103D60008320EB4908704620EA49887002E0002071
:103D7000E749087065E0E648007883280CDBE348F3
:103D80000178E34800788038E24A1154E04800782E
:103D9000401CDF49087002E00020DD490870DC4863
:103DA00000788038DB490979884249D12020D849F8
:103DB0000870D8484779122F16D004DC012F07D09D
:103DC000022F34D10AE0132F15D0302F2FD118E055
:103DD0004FF48051D048FEF743F829E04FF480516A
:103DE000CD48FEF73DF823E04FF48051CA48FEF776
:103DF00037F81DE02EE04FF48051C748FEF730F849
:103E000016E0C4488479007AC249C97940EA01269B
:103E1000102C03D12102C048FEF722F8B6F57A7FB4
:103E200004D14FF48051BC48FEF71AF800E000BFFF
:103E300000BF0020B6490870FF20B649087100BFD6
:103E400000BF00BFB2480078202802D10020B0494E
:103E500008704EE1B14928688842FAD1AB48007831
:103E6000412802D0422819D109E04120A94908700F
:103E7000A748007840F08100A549087038E1A448BF
:103E80000078832806D1C420A14908704220A149A6
:103E9000C87002E000209E49087029E19B48007824
:103EA0003038092816DC9A48007800F0C00068B164
:103EB000964800789649097801F00F01954A5054C8
:103EC00093480078401C9249087006E00020904911
:103ED000087002E000208E4908708D48007800F0DC
:103EE0000F0008287AD18A48007840F020008849DD
:103EF000087000BF87488078303886494978303963
:103F00000A2212FB010424048248007930384FF45D
:103F10007A7110FB01F17F4840793038642212FB3E
:103F200000117C48807930380A2212FB0011794850
:103F3000C0793038012212FB00100444002074497B
:103F40000870C4F307400090A6B29DF8000018283E
:103F500071DA0A2096FBF0F09DF8001001EB4101A8
:103F60006F4A02EB81010881012269466D4800F029
:103F700043F99DF8000000EB4000694901EB800027
:103F8000406880B99DF8000000EB400001EB800024
:103F900000899DF8001001EB4101614A52F821109F
:103FA0000968486347E09DF8000000EB40005C4969
:103FB00001EB80004068042811D19DF8000000EB5F
:103FC000400001EB800000899DF8001001EB4101E9
:103FD000534A52F82110096888632CE087E09DF865
:103FE000000000EB40004E4901EB800040680828CB
:103FF00010D19DF8000000EB400001EB800000892B
:104000009DF8001001EB4101454A52F82110096862
:10401000C86310E09DF8000000EB4000404901EB50
:10402000800000899DF8001001EB41013C4A52F8E4
:104030002110096808649DF80000582856D1002016
:1040400052E0002100EB4002354B03EB820211816C
:1040500000EB40011A4602EB8101496859B900EBB7
:10406000400102EB8101098900EB400253F8222054
:104070001268516336E000EB4001294A02EB8101EE
:10408000496804290CD100EB400102EB8101098948
:1040900000EB4002224B53F822201268916321E08A
:1040A00000EB40011E4A02EB8101496808290CD14E
:1040B00000EB400102EB8101098900EB4002184B43
:1040C00053F822201268D1630CE000EB4001144A3F
:1040D00002EB8101098900EB4002114B53F82220C9
:1040E00012681164411CC8B21828AADB00BF00BFC7
:1040F00000BF012205490B48FFF7EEFD01220349ED
:104100000948FFF7E9FDF8BD00100140F80B002059
:10411000880100207E01002000140240004400407D
:1041200020000020A00C00205C0C00202DE9F843AA
:1041300004460E4615461F4694F83D00202802D03E
:104140000220BDE8F883C6B1BDB194F83C00012857
:1041500016D0012084F83C004FF00009C4F84090CC
:10416000212084F83D00FDF78BFE8046A584E58480
:10417000A068B0F5805F06D007E00120BDE8F883B5
:104180000220BDE8F883206980B13546002684F816
:104190003C90E08CB8B14346002280212046009735
:1041A00001F0D8FD20B10320BDE8F8830025EEE73B
:1041B000A5B12168287848606D1CE08C401EE08421
:1041C000E08C0028E7D1434600224021204600979A
:1041D00001F0C0FD48B10320BDE8F88330882168B4
:1041E000C0F308004860B61CE7E7202084F83D00D3
:1041F0000020BDE8F883000037B5044694F83D0080
:10420000202802D003B0022030BD0199002937D008
:10421000002A35D094F83C00012834D0012084F8DD
:104220003C002162A284E28400252564212084F8D8
:104230003D00636B1548D863636B15481864636B66
:104240001448D864606B056520681346001DD4F8D7
:1042500034C002466046FDF79FFC21686FF04000C5
:10426000086084F83C502068143050E8001F41F08A
:10427000800140E80012002AF5D103B0002030BDD3
:1042800003B0012030BD03B0022030BD295A000820
:104290006D5A0008DF5900087047704702A001F00E
:1042A000B1FD00BFFEE70000486172644661756CB5
:1042B000745F48616E646C657200000000B58BB07D
:1042C0001F48204908600620486000211D48816081
:1042D000C1604FF480210161002141610176417686
:1042E0008176C17601774177FCF7E7FE08B1FCF7EC
:1042F000E7FB00200790012008904FF42050019028
:104300000020029003900490059001200990002065
:10431000069001A90B48FCF76BFC08B1FCF7D0FB39
:104320000848FDF730FA08B1FCF7CAFB022105483E
:10433000FCF7C9FB08B1FCF7C3FB0BB000BD0000E4
:10434000006400403807002008B500BF002000903E
:104350001E48006840F480001C4908600846006858
:1043600000F48000009000BF00BF00BF002000905C
:104370000846006840F4001008600846006800F431
:104380000010009000BF00BF002205211020FDF7A3
:1043900031FE1020FDF720FE002205211120FDF73F
:1043A00029FE1120FDF718FE002205213A20FDF715
:1043B00021FE3A20FDF710FE002205214620FDF7E0
:1043C00019FE4620FDF708FE08BD00003038024007
:1043D00010B50E4A00210E4802F0DCFA0D490860C3
:1043E0000D4A00210D4802F0D5FA0D4908600D4A2A
:1043F00000210D4802F0CEFA0C4908600C4A002159
:104400000C4802F0C7FA0C49086010BD9082000801
:104410008D55000810000020B4820008A95500083E
:1044200014000020D8820008B555000818000020AC
:10443000FC820008C35500081C00002000B587B0AE
:10444000142102A8FBF768FF00BF002001905A4822
:10445000006840F01000584908600846006800F005
:104460001000019000BF00BF00BF0020019008466F
:10447000006840F0800008600846006800F0800096
:10448000019000BF00BF00BF0020019008460068F7
:1044900040F0200008600846006800F0200001900D
:1044A00000BF00BF00BF002001900846006840F038
:1044B000020008600846006800F00200019000BF9A
:1044C00000BF00BF002001900846006840F00800CF
:1044D00008600846006800F00800019000BF00BFB7
:1044E00000BF002001900846006840F0040008600A
:1044F0000846006800F00400019000BF00BF00BF44
:10450000002001900846006840F00100086008465D
:10451000006800F00100019000BF00BF00BF002054
:1045200001900846006840F04000086008460068B6
:1045300000F04000019000BF00BF00224FF4F041A6
:104540001E48FDF795FC002203211D48FDF790FC55
:1045500000224FF400711B48FDF78AFC4FF4F04035
:1045600002900120039000200490059002A91348B6
:10457000FDF75EFB032002900120039000200490D1
:10458000059002A90E48FDF753FB80200290002001
:104590000390049002A90A48FDF74AFB4FF400700B
:1045A00002900120039000200490059002A9054884
:1045B000FDF73EFB07B000BD30380240001402405A
:1045C000000C02400018024010B510481049086065
:1045D0004FF48270486000210D4881604FF4006103
:1045E000C1600021016101214161490281613021E5
:1045F000C16100210162416281620A21C162FEF74C
:10460000B8F808B1FCF75CFA10BD0000003C0040AF
:104610001008002000B587B01C216846FBF77CFE1F
:10462000154816490860032048600021134881603E
:1046300040F2E731C160002101618161FEF788FB32
:1046400008B1FCF73DFA0D48FFF71BF808B1FCF77D
:1046500037FA602000900020019002900490002220
:1046600069460648FEF7A1FF08B1FCF729FA03489E
:10467000FEF722FE07B000BD00440140580A0020AA
:1046800000B587B01C216846FBF746FE1548164961
:1046900008600320486000211348816040F2E73140
:1046A000C160002101618161FEF752FB08B1FCF796
:1046B00007FA0D48FEF7E5FF08B1FCF701FA6020A4
:1046C0000090002001900290049000226946064864
:1046D000FEF76BFF08B1FCF7F3F90348FEF7ECFDBA
:1046E00007B000BD00480140A00A002000B58BB013
:1046F00000200790089009900A901C216846FBF75B
:104700000BFE1F481F4908600320486000211D4818
:10471000816040F2E731C160002101618161FEF7F3
:1047200017FB08B1FCF7CCF94FF48050079007A9AC
:104730001448FEF790FC08B1FCF7C2F91148FEF7E7
:10474000A0FF08B1FCF7BCF96020009000200190A8
:1047500002900490002269460A48FEF726FF08B13D
:10476000FCF7AEF9042269460648FEF71EFF08B1C1
:10477000FCF7A6F90348FEF79FFD0BB000BD000053
:1047800000180040E80A002000B595B00020119004
:104790001290139014900F9010901C2108A8FBF712
:1047A000BBFD20216846FBF7B7FD37483749086055
:1047B0000320486000213548816040F2E731C16044
:1047C0000021016141618161FEF7C2FA08B1FCF785
:1047D00077F94FF48050119011A92C48FEF73BFC5B
:1047E00008B1FCF76DF92948FEF74BFF08B1FCF75B
:1047F00067F900200F9010900FA92448FEF75BFA8C
:1048000008B1FCF75DF960200890002009900A903B
:104810000B900C900D900E90002208A91B48FEF7FB
:10482000C4FE08B1FCF74CF9042208A91748FEF7AA
:10483000BCFE08B1FCF744F9082208A91348FEF7AA
:10484000B4FE08B1FCF73CF90C2208A90F48FEF7AA
:10485000ACFE08B1FCF734F9002000900190029002
:10486000039004904FF40050059000200790694693
:104870000648FEF7EDF908B1FCF722F90348FEF708
:104880001BFD15B000BD000000000140A80800207D
:1048900000B58DB0002009900A900B900C90079005
:1048A00008901C216846FBF737FD4FF080402B49EC
:1048B00008600320486000212848816040F2E73109
:1048C000C160002101618161FEF742FA08B1FCF785
:1048D000F7F84FF48050099009A92048FEF7BBFB78
:1048E00008B1FCF7EDF81D48FEF7CBFE08B1FCF768
:1048F000E7F800200790089007A91848FEF7DBF9B1
:1049000008B1FCF7DDF860200090002001900290D3
:104910000490002269461148FEF747FE08B1FCF7F3
:10492000CFF8042269460D48FEF73FFE08B1FCF7B8
:10493000C7F8082269460948FEF737FE08B1FCF7B8
:10494000BFF80C2269460548FEF72FFE08B1FCF7B8
:10495000B7F80248FEF7B0FC0DB000BDF00800202B
:1049600000B58DB0002009900A900B900C90079034
:1049700008901C216846FBF7CFFC244824490860B6
:104980000320486000212248816040F2E731C16085
:10499000002101618161FEF7DBF908B1FCF790F8B5
:1049A0004FF48050099009A91948FEF754FB08B14B
:1049B000FCF786F81648FEF764FE08B1FCF780F8AD
:1049C00000200790089007A91148FEF774F908B174
:1049D000FCF776F86020009000200190029004908F
:1049E000002269460A48FEF7E0FD08B1FCF768F8C6
:1049F000042269460648FEF7D8FD08B1FCF760F8C6
:104A00000348FEF759FC0DB000BD00000004004053
:104A10003809002000B58DB0002009900A900B9055
:104A20000C90079008901C216846FBF775FC2C48F9
:104A30002C4908600320486000212A48816040F228
:104A4000E731C160002101618161FEF781F908B1A0
:104A5000FCF736F84FF48050099009A92148FEF779
:104A6000FAFA08B1FCF72CF81E48FEF70AFE08B166
:104A7000FCF726F800200790089007A91948FEF7D0
:104A80001AF908B1FCF71CF8602000900020019092
:104A900002900490002269461248FEF786FD08B194
:104AA000FCF70EF8042269460E48FEF77EFD08B1B9
:104AB000FCF706F8082269460A48FEF776FD08B1B9
:104AC000FBF7FEFF0C2269460648FEF76EFD08B1B3
:104AD000FBF7F6FF0348FEF7EFFB0DB000BD00004B
:104AE000000800408009002000B595B0002011901A
:104AF0001290139014900F9010901C2108A8FBF7AF
:104B00000BFC20216846FBF707FC37483749086053
:104B10000320486000213548816040F2E731C160E0
:104B20000021016141618161FEF712F908B1FBF7D3
:104B3000C7FF4FF48050119011A92C48FEF78BFA53
:104B400008B1FBF7BDFF2948FEF79BFD08B1FBF755
:104B5000B7FF00200F9010900FA92448FEF7ABF884
:104B600008B1FBF7ADFF60200890002009900A9083
:104B70000B900C900D900E90002208A91B48FEF798
:104B800014FD08B1FBF79CFF042208A91748FEF7A3
:104B90000CFD08B1FBF794FF082208A91348FEF7A3
:104BA00004FD08B1FBF78CFF0C2208A90F48FEF7A3
:104BB000FCFC08B1FBF784FF0020009001900290FC
:104BC000039004904FF40050059000200790694630
:104BD0000648FEF73DF808B1FBF772FF0348FEF701
:104BE0006BFB15B000BD000000040140C8090020A7
:104BF00000B58BB000200790089009900A901C2106
:104C00006846FBF789FB1F481F490860032048607E
:104C100000211D48816040F2E731C160002101613F
:104C20008161FEF795F808B1FBF74AFF4FF4805019
:104C3000079007A91448FEF70EFA08B1FBF740FFEA
:104C40001148FEF71EFD08B1FBF73AFF6020009007
:104C50000020019002900490002269460A48FEF765
:104C6000A4FC08B1FBF72CFF042269460648FEF7B6
:104C70009CFC08B1FBF724FF0348FEF71DFB0BB0BB
:104C800000BD000000400140100A002010B50B4894
:104C90000B4908604FF4E13048600021084881600A
:104CA000C16001610C21416100218161C161FEF798
:104CB000C7FE08B1FBF704FF10BD00000010014063
:104CC0005C0C002010B50B480B4908604FF4E13034
:104CD0004860002108488160C16001610C21416188
:104CE00000218161C161FEF7ABFE08B1FBF7E8FE70
:104CF00010BD000000440040A00C002000BFFEE7F3
:104D000000BFFEE700B502460020314908700120CF
:104D10003049087002203049087003202F4908707C
:104D200004202F49087005202E49087006202E49BE
:104D3000087007202D490870012A06D0022A0BD0DE
:104D4000032A16D0042A40D126E0214800F050F86A
:104D5000204800F04DF839E01D4800F049F81D48A2
:104D600000F046F81C4800F043F81C4800F040F8FA
:104D70002CE0174800F03CF8164800F039F81648C7
:104D800000F036F8154800F033F8154800F030F818
:104D9000144800F02DF819E00D4800F029F80D48EE
:104DA00000F026F80C4800F023F80C4800F020F83A
:104DB0000B4800F01DF80B4800F01AF80A4800F004
:104DC00017F80A4800F014F800E000BF00BF00BD6B
:104DD00020020020B002002040030020D003002069
:104DE00060040020F0040020800500201006002050
:104DF0009FED420A503000ED120A9FED400A00ED8F
:104E0000110A9FED3E0A00ED100A9FED3C0A00EDED
:104E10000F0A9FED3A0A00ED0E0A9FED380A00EDE9
:104E20000D0A9FED360A00ED0C0A9FED340A00EDE5
:104E30000B0A9FED320A00ED0A0A9FED300A00EDE1
:104E4000090A9FED2E0A00ED080A9FED2C0A00EDDD
:104E5000070A9FED2A0A00ED060A9FED280A00EDD9
:104E6000050A9FED260A00ED040A9FED240A00EDD5
:104E7000030A9FED220A00ED020A9FED200A00EDD1
:104E8000010A9FED1F0A80ED000A9FED1E0A80EDCA
:104E9000010A9FED1C0A80ED020AB0EE080A80EDBF
:104EA000030A9FED160A80ED040A9FED140A80EDB7
:104EB000050AB6EE000A80ED060A9FED130A80EDA2
:104EC000070A9FED120A80ED080AB6EE000A80ED8F
:104ED000090A9FED0F0A80ED0A0AB6EE000A80ED7E
:104EE0000B0AFA210163494241639FED040A80EDF8
:104EF0000E0A002181875038704700000000000032
:104F0000000048430000C842CDCC4C3ECDCCCC3D47
:104F10009A99993E70B58AB0064619A103C9CDE9A0
:104F2000080119A103C9CDE90601002000900190F4
:104F30000290039004A9304600F02CF800250DE003
:104F40005DF82500C5F1030104AA32F81110C1F380
:104F50000D0108444DF82500681CC5B2042DEFDB97
:104F6000002408E03DF82400094901EBC60121F8BE
:104F70001400601CC4B2042CF4DB0AB070BD000045
:104F8000FFFFFFFFFFFFFFFF014001400140014025
:104F90006808002030B585B004460D4622A103C93B
:104FA000CDE9030122A103C9CDE90101224A02EBA7
:104FB00004129188204A02EB041210680022FCF7C8
:104FC00057FF4FF0FF33042203A91C48FDF774FC80
:104FD000194A02EB04129188174A02EB0412106876
:104FE0000122FCF745FF144A02EB04129188124A91
:104FF00002EB041210680022FCF73AFF4FF0FF307A
:1050000004232A4603A900900C48FDF723FD0A4A11
:1050100002EB04129188084A02EB04121068012284
:10502000FCF726FF05B030BDFFFFFFFFFFFFFFFFCE
:1050300001400140014001405C01002010080020B7
:10504000F0B52DED048B8DB04848B0F90000C0F1EB
:10505000010006B2002582E02846FFF75BFF00242E
:1050600059E0434800EBC50030F81400414901EB1A
:10507000C50131F81410401A00B208A921F8140033
:1050800008A830F9140010F5005F07DA08A830F816
:10509000140000F5804000B221F8140008A830F98F
:1050A0001400B0F5005F08DD08A830F81400A0F582
:1050B000804000B208A921F8140008A830F81400B4
:1050C00003A921F8140008A830F814002A4901EBBC
:1050D000061101EBC50121F8140008A830F91400ED
:1050E00000EE100AF8EEC00A9FED241A80EE810A45
:1050F000DFED230A20EE208A18EE100AFBF7A6FA4D
:1051000041EC190B8DED009B621C691C1DA000F089
:1051100079FE601CC4B2042CA3DB75B9BDF82670FF
:10512000BBB2BDF82470BAB2BDF82270B9B2BDF8F6
:105130002070B8B200F0CEF80DE0BDF82670BBB21A
:10514000BDF82470BAB2BDF82270B9B2BDF82070B3
:10515000B8B200F0E3F805480680681CC5B2022D1D
:10516000FFF67AAF0DB0BDEC048BF0BD7C010020E2
:105170006808002078080020880800200000004609
:1051800000003443616E676C6525642D2564203D05
:1051900020252E33660A000010B582B0044615485B
:1051A000DFF854C00068B0FBFCF04FF47A7C00FBE1
:1051B0000CF001906068B0F5827F0ED10B46009232
:1051C00000228021204600F019F880B1606D40F087
:1051D0002000606502B0032010BD019838B101982D
:1051E000401E01902068806810F0800FF5D102B059
:1051F000002010BD9801002000366E012DE9F84313
:1052000004460F4690469946089DFCF739FE401B20
:10521000A9EB0005FCF734FE06462D480068C0F3F4
:10522000CB30684300902068806837EA00000ED0D9
:105230000020404546D0B9F1FF3F3BD0FCF720FEAF
:10524000801BA84205D225B1009870B32FE0012041
:10525000EFE72068416821F0E00141606068B0F547
:10526000827F0BD1A068B0F5004F02D0B0F5806FFF
:1052700004D12068016821F040010160A06AB0F506
:10528000005F09D12068016821F4005101602068A5
:10529000016841F400510160012084F851000020B0
:1052A00084F850000320BDE8F883FFE7002500984C
:1052B000401E00902068806837EA000005D000207A
:1052C0004045B8D10020BDE8F8830120F8E7000090
:1052D000980100202DE9F04107460C4615461E4670
:1052E000380A0C4908704F70200A8870CC70280A60
:1052F00008714D71300A8871CE7100224FF48051CF
:105300000548FCF7B5FD03494FF48170FBF722FB1C
:10531000BDE8F08144010020001402402DE9F04175
:1053200007460C4615461E46380A0C4908704F7051
:10533000200A8870CC70280A08714D71300A887173
:10534000CE7100224FF480510548FCF791FD0349CE
:1053500040F20310FBF7FEFABDE8F0814C0100209B
:105360000014024010B504468448406820B98348C0
:1053700000680068446315E080484068042804D150
:105380007E480068006884630CE07C484068082818
:1053900004D17A4800680068C46303E07748006875
:1053A000006804647548006920B97448C0680068E2
:1053B000446315E071480069042804D16F48C0684F
:1053C000006884630CE06D480069082804D16B48CC
:1053D000C0680068C46303E06848C068006804648B
:1053E0006648C06920B9654880690068446315E073
:1053F0006248C069042804D16048806900688463F9
:105400000CE05E48C069082804D15C4880690068E7
:10541000C46303E059488069006804645748806A9F
:1054200020B95648406A0068446315E05348806AD2
:10543000042804D15148406A006884630CE04F4856
:10544000806A082804D14D48406A0068C46303E0BC
:105450004A48406A006804644848406B20B947489D
:10546000006B0068446315E04448406B042804D195
:105470004248006B006884630CE04048406B082899
:1054800004D13E48006B0068C46303E03B48006BF6
:10549000006804643948006C20B93848C06B006863
:1054A000446315E03548006C042804D13348C06BD0
:1054B000006884630CE03148006C082804D12F4850
:1054C000C06B0068C46303E02C48C06B00680464D0
:1054D0002A48C06C20B92948806C0068446315E0F4
:1054E0002648C06C042804D12448806C006884637A
:1054F0000CE02248C06C082804D12048806C006869
:10550000C46303E01D48806C006804641B48806D20
:1055100020B91A48406D0068446315E01748806D53
:10552000042804D11548406D006884630CE01348DA
:10553000806D082804D11148406D0068C46303E001
:105540000E48406D0068046400200D4908704870E2
:105550008870C870087148718871C87120B2094993
:10556000088020B2488020B20749088020B24880D5
:1055700040F2DC5001F0CEF910BD00002000002008
:1055800000000020A0060020BC06002000BF4FF451
:1055900000610448FCF764FC4FF4FA7001F0BAF9BA
:1055A000F5E700000014024000BF40F6B83001F0FB
:1055B000B1F9FAE700BFFFF743FD0A2001F0AAF9AD
:1055C000F9E700BF4FF4FA7001F0A4F9FAE710B55B
:1055D0004FF0E020006902F091FC012803D0BDE803
:1055E000104002F093B910BD00B593B0302107A868
:1055F000FAF792FE142102A8FAF78EFE00BF0020EF
:1056000001902448006840F0805022490860084614
:10561000006800F08050019000BF00BF00BF002074
:1056200001901D48006840F480401B49086008460E
:10563000006800F48040019000BF00BF0120079087
:105640000004089002200D9041050E9104210F9155
:10565000A8211091022111910421129107A8FCF7B1
:1056600047FE08B1FBF72CFA0F20029002200390AE
:10567000002004904FF4A05005904FF48050069005
:10568000052102A8FCF7FCFC08B1FBF719FA13B0DE
:1056900000BD000040380240007000400248016830
:1056A00041F470010160704788ED00E010B50248D8
:1056B000FDF747FD10BD0000640E0020F0B4026845
:1056C0002C4B2D4C2D4D2E4EDFF8B8C098420AD0F1
:1056D000B0F1804F07D0A04205D0A84203D0B0421D
:1056E00001D0604503D122F070024F683A439842DE
:1056F00028D0B0F1804F25D0A04223D0A84221D09D
:10570000B0421FD060451DD0A0F18044B4F5A03454
:1057100018D0A0F18044B4F5A23413D0A0F1804495
:10572000B4F5A4340ED0A0F18044B4F5C05409D02F
:10573000A0F18044B4F5E05404D0A0F18044B4F565
:10574000005403D122F44072CC6822434C6922F009
:105750008002224302608A68C2620A6882629842BA
:1057600001D0604501D10969016301214161F0BCAB
:1057700070470000000001400004004000080040A5
:10578000000C00400004014001F01F0101238B4088
:10579000D0F820C02CEA03030362036A02FA01F185
:1057A000194301627047D0F808C02CF47F4C42EADC
:1057B0000322114341EA0C0181607047826822F0A4
:1057C0007002114341F007018160704770B4026AB2
:1057D00022F001020262036A4268D0F818C02CF07D
:1057E000700C2CF0030C0C6844EA0C0C23F0020340
:1057F0008C6823430F4C104DA04201D0A84205D124
:1058000023F00803CE68334323F00403A04201D001
:10581000A84207D122F4807222F400724C6922431C
:105820008C6922434260C0F818C049684163036232
:1058300070BC7047000001400004014070B4026A6F
:1058400022F010020262036A4268D0F818C02CF4F9
:10585000E04C2CF4407C0C684CEA042C23F0200330
:105860008C6843EA0413114C114DA04201D0A842A8
:1058700006D123F08003CE6843EA061323F04003E9
:10588000A04201D0A84209D122F4806222F4006231
:105890004C6942EA84028C6942EA84024260C0F8A0
:1058A00018C049688163036270BC70470000014002
:1058B0000004014070B4026A22F480720262036A3A
:1058C0004268D0F81CC02CF0700C2CF0030C0C6853
:1058D00044EA0C0C23F400738C6843EA0423114C53
:1058E000114DA04201D0A84206D123F40063CE6836
:1058F00043EA062323F48063A04201D0A84209D1E1
:1059000022F4805222F400524C6942EA04128C695B
:1059100042EA04124260C0F81CC04968C1630362D5
:1059200070BC7047000001400004014010B4026ADE
:1059300022F480520262D0F820C04268C36923F486
:10594000E04323F440730C6843EA04232CF4005C26
:105950008C684CEA043CA0F18044B4F5803404D057
:10596000A0F18044B4F5823404D122F480424C6921
:1059700042EA84124260C36149680164C0F820C0F1
:1059800010BC7047036AD0F820C02CF0010CC0F89E
:1059900020C0D0F818C02CF0F00C4CEA021223F012
:1059A0000A031943826101627047036A23F01003FE
:1059B0000362D0F818C0036A2CF4704C4CEA02322F
:1059C00023F0A00343EA011182610162704710B520
:1059D000806B0021C185C184FDF700FF10BD70B54B
:1059E000846B20684069C0F3C01094F83D10002516
:1059F000212904D118B1E584204600F070F8206810
:105A00004069C0F3801094F83E10222904D118B1E7
:105A1000E585204600F02FF8206C40F0100020644F
:105A20002046FDF7DBFE70BD10B50146886B0968A6
:105A3000096811F4807F02D0FEF72EFC10BD002112
:105A4000C1840168143151E8002F22F0800241E83E
:105A50000023002BF5D101680C3151E8002F42F0F2
:105A6000400241E80023002BF5D110BD10B5806B3A
:105A7000FEF713FC10BD01680C3151E8002F22F431
:105A8000907241E80023002BF5D10168143151E8F0
:105A9000002F22F0010241E80023002BF5D1016B19
:105AA000012909D101680C3151E8002F22F01002C0
:105AB00041E80023002BF5D1202180F83E10002181
:105AC0000163704710B50168CA6822F04002CA60DD
:105AD000202180F83D10FEF7DFFB002010BD01689B
