:020000040800F2
:1000000018100020490100087D2900084B2600082F
:10001000792900083D09000825310008000000008A
:100020000000000000000000000000005D2D00083E
:10003000750900080000000081290008B92D00089A
:100040006301000863010008630100086301000800
:1000500063010008630100086301000863010008F0
:1000600063010008630100086301000863010008E0
:1000700063010008630100086301000863010008D0
:1000800063010008630100086301000863010008C0
:1000900015310008630100086301000863010008CE
:1000A00063010008630100086301000863010008A0
:1000B0006301000863010008630100086301000890
:1000C000630100086301000863010008212C000897
:1000D000312C0008E13000080531000863010008F8
:1000E0006301000863010008630100086301000860
:1000F0006301000863010008630100086301000850
:10010000630100086301000863010008412C000836
:10011000630100086301000863010008630100082F
:10012000630100086301000863010008630100081F
:10013000DFF810D000F08AFB004800472D3A000895
:10014000AFF300801810002006488047064800479B
:10015000FEE7FEE7FEE7FEE7FEE7FEE7FEE7FEE777
:10016000FEE7FEE7272E000831010008202A04DB05
:10017000203A21FA02F00021704721FA02F3D04020
:10018000C2F12002914008431946704740EA01033A
:100190009B0703D009E008C9121F08C0042AFAD23D
:1001A00003E011F8013B00F8013B521EF9D2704701
:1001B000D2B201E000F8012B491EFBD270470022A9
:1001C000F6E710B513460A4604461946FFF7F0FF56
:1001D000204610BD80EA010210B502F00043400045
:1001E00022D04A001FD0010E01EB1261C0F356006D
:1001F000C2F3560240F4000042F40002A0FB0220C9
:1002000000047F39140400D0401C50EA124001D48D
:100210004000491EC2B20C0604EBD010401C40083E
:10022000802A02D003E0002010BD20F00100002948
:1002300000DA0020184310BD30B480EA010202F059
:10024000004530F0004221F0004013D090B1C30DC2
:10025000D40DC2F31601C0F31600E41A41F40001F4
:1002600040F400027D34914201D3641C00E0490057
:10027000002C02DA30BC002070474FF4000000234D
:10028000914201D3891A034340084FEA4101F7D153
:1002900051B1914202D14FF0004105E002D24FF03E
:1002A000010101E06FF0010103EBC450284430BCB0
:1002B00000F060B92DE9FE4F81EA030404F0004428
:1002C00021F0004100944FF0000B23F0004350EA6E
:1002D00001045ED052EA03045BD0C3F30A54C1F3B5
:1002E0000A552C44A4F2F3340194A0FB0254C1F348
:1002F000130141F48011C3F3130343F4801301FB92
:10030000024400FB034E840A970A44EA815447EAF8
:100310008357A4FB076802958D0A05FB07854FEA02
:10032000932C04FB0C542705029D4FEA065847EA1C
:100330001637B5EB08056EEB070C870E920E47EAF1
:10034000811742EA8312A7FB0201B6EB0B0164EBB3
:1003500000042B0D43EA0C335E1844EB1C50DA46C4
:100360005146E7FB0201C5F313044FEA0B3343EA9E
:1003700014534FEA0432019C43EA0603A4F10C042F
:100380000294009CCDE900B400F03AF903B0BDE856
:10039000F08F00200146F9E72DE9F04D81EA0304D2
:1003A00004F0004B21F0004514464FF0000A23F002
:1003B000004150EA050220D054EA01021DD0C5F3E5
:1003C0000A570246C5F31303C1F31300C1F30A56DB
:1003D00040F4801543F48013A7EB0608101BD646A3
:1003E00008F2FD3873EB050002D308F1010801E0C3
:1003F00092185B41B8F1000F03DA00200146BDE816
:10040000F08D00204FF48011064684460EE0171B45
:1004100073EB050705D3121B63EB050306434CEA98
:10042000010C49084FEA300092185B4150EA01077D
:10043000EDD152EA030012D082EA040083EA0501FA
:10044000084305D0101BAB4106D20122002306E071
:1004500000224FF0004302E06FF0010253101AEB4C
:1004600006004CEB085110EB0A0041EB0B01BDE814
:10047000F04D00F0B6B8C10F80EAE0700844CA073A
:100480009623002100F07FB800F0004230F00040D9
:100490000AD0C10D01F56071C0F3160042EA0151A6
:1004A000C20840071143704700200146704701F021
:1004B000004330B421F0004150EA010206D00A0D99
:1004C000A2F56072C1F31301002A02DC30BC0020E7
:1004D0007047440F44EAC104C100E01830BC00EB8F
:1004E000C25000F047B830B50B460146002020222C
:1004F000012409E021FA02F59D4205D303FA02F531
:10050000491B04FA02F52844151EA2F10102F1DC90
:1005100030BD2DE9F05F0546002092469B46884697
:100520000646814640241BE028464146474622466F
:10053000FFF71CFE53465A46C01A914110D311468C
:100540001846224600F094F92D1A67EB01084F4631
:1005500022460120002100F08BF917EB00094E41E3
:10056000201EA4F10104DFDC484631462A464346FA
:10057000BDE8F09F0029A8BF7047401C490008BF94
:1005800020F00100704710B4B0FA80FC00FA0CF0C3
:1005900050EA010404BF10BC704749B1CCF12004FB
:1005A00021FA04F411FA0CF118BF01212143084388
:1005B000A3EB0C01CB1D4FEA00614FEA102042BFB4
:1005C000002010BC704700EBC35010440029A4BFAA
:1005D00010BC7047401C490008BF20F0010010BC4F
:1005E000704710B5141E73F1000408DA401C41F185
:1005F000000192185B411A4301D120F0010010BDA7
:100600002DE9F04D92469B4611B1B1FA81F202E01C
:10061000B0FA80F22032904600F02AF904460F46E4
:1006200040EA0A0041EA0B0153465A46084313D0F8
:10063000114653EA010019D0C8F140025046FFF7B5
:1006400095FD05460E4650465946424600F010F9C3
:10065000084305D0012004E020463946BDE8F08D6E
:100660000020054346EAE0762C4337430A986305A9
:10067000E40AA0EB08000022FD0A44EA47540A30CD
:1006800002D500200146E9E7010510196941DDE9BD
:10069000084500196941BDE8F04DA2E72DE9FE4F7C
:1006A000804681EA0300C00F0C46009021F0004113
:1006B00023F00045B8EB0200A94105D2404621468F
:1006C00090461C460B46024623F00040104347D09C
:1006D000270DC7F30A00C3F30A510290401A019094
:1006E00040286BDAC3F3130040F4801B0098924655
:1006F00020B10023D2EB030A63EB0B0B01985946A0
:10070000C0F14002504600F0B3F806460D46504690
:100710005946019A00F0BBF810EB08006141002433
:1007200087EA115284EAE7731A4340D0009A62B311
:10073000019A012A4FEA075215DC001B61EB020106
:100740004FF0004202EA0752CDE90042001C41F599
:10075000801132462B46FFF753FF03B0BDE8F08F00
:1007600040462146F9E7001B61EB0201001C41F500
:10077000801300185B412018A2F5001747EB030116
:1007800040EAD570B6196D4111E06D084FEA3606A2
:1007900045EAC0754FEA0752001B61EB0201001CDD
:1007A00041F5801149084FEA3000001951413246A5
:1007B0002B4603B0BDE8F04FFFF713BF00980122AE
:1007C00040000023D0EB020263EBE0730098214667
:1007D0004FEAE074B8EB000061EB0401E9E783F055
:1007E00000435BE781F0004158E7C1F30A52C1F3CF
:1007F000130140F2FF3341F480119A4202DA0020E3
:100800000146704740F233439A42A2F2334202DC7F
:100810005242FFF7ABBC00F02BB8000030B5041E0D
:1008200071F1000404DB4FF00044404264EB01012D
:10083000141E73F1000405DB1C464FF000435242C6
:1008400063EB0403994208BF904230BD064C074D4C
:1008500006E0E06840F0010394E807009847103490
:10086000AC42F6D3FFF768FCF03E0008103F0008EA
:10087000202A04DB203A00FA02F100207047914060
:10088000C2F1200320FA03F3194390407047202A55
:1008900006DBCB17203A41FA02F043EAE07306E0A8
:1008A00041FA02F3D040C2F12002914008431946B8
:1008B0007047000010B5002415E0204602F074F8DF
:1008C00000200CE00021174A02EBC40222F81010AD
:1008D000154A02EBC40222F81010411CC8B20428C9
:1008E000F0DB601CC4B2022CE7DB002414E02046DD
:1008F00002F05AF800200BE00A4901EBC40131F87C
:100900001010094A02EBC40222F81010411CC8B2B0
:100910000428F1DB601CC4B2022CE8DB03A002F067
:1009200003FC10BDA0050020B00500205A65726FC1
:10093000207265736574210D0A00000000BFFEE798
:1009400030B587B005460C46642000F09FFB01954A
:1009500000200490039008200590044B224601A932
:10096000034800F00BF807B030BD0000180000206D
:1009700078050020704772B600BFFEE770B490F8AB
:100980002040D0F800C0DCF808C0012C08D0022CB0
:1009900006D0416A41F48021416270BC0120704759
:1009A0000CF080640CF000652C4302D11CF0805FD9
:1009B0005FD0CCF3016CBCF1020F06D9416A41F45F
:1009C0000001416270BC01207047012404FA0CF45C
:1009D0001C608B684FF4C0749BB1CD6804EB0C169F
:1009E0002B434D6843EAC5030568AB514FF4C2730E
:1009F000066803EB0C130D69F550097D012909D038
:100A00000DE00D88CB6804EB0C1643EA45530568EE
:100A1000AB51EBE70168CD5845F48075CD501179A5
:100A2000D379557941EA036193791B0443EA05239D
:100A300019434FF4C675036805EB0C15595111782D
:100A4000D37841EA0361937852781B0443EA022287
:100A500011434FF4C473026803EB0C13D1500168C7
:100A600004EB0C100A5842F001020A5070BC00203E
:100A70007047416A41F40011416270BC0120704727
:100A800070472DE9F05F0546002428684669D0F8D4
:100A900004908768D0F80CA0D0F810B0D0F8188077
:100AA00016F0010F54D017F0010F17D0012181600B
:100AB00017F0020F03D0284600F004FA0EE017F0FA
:100AC000040F02D04FF4006408E017F0080F02D0C2
:100AD0004FF4805402E0284600F0F3F917F4807FC9
:100AE00019D029684FF48070886017F4007F03D014
:100AF000284600F0E9F90EE017F4806F02D044F4C4
:100B0000005408E017F4006F02D044F4804402E07F
:100B1000284600F0D8F917F4803F19D029684FF41F
:100B20008030886017F4003F03D0284600F0CEF9EB
:100B30000EE017F4802F02D044F4004408E017F4CC
:100B4000002F02D044F4803402E0284600F0BDF9C2
:100B500016F0080F07D01AF0100F04D044F40074F8
:100B600029681020C86016F0040F4FF0080707D05E
:100B70001AF0080F04D02868C760284600F09CF9D6
:100B800016F0020F07D02868C06810F0030F02D0DB
:100B9000284600F092F916F0400F07D01BF0100F16
:100BA00004D044F4806429681020086116F0200FF6
:100BB00007D01BF0080F04D028680761284600F012
:100BC0007DF916F0100F07D02868006910F0030FA8
:100BD00002D0284600F073F916F4003F08D019F04F
:100BE000100F05D0296810204860284600F068F9E9
:100BF00016F4803F07D019F0080F04D0286847602A
:100C0000284600F064F916F4004F4AD019F0040F9A
:100C100044D016F4807F04D018F0010F01D044F0C6
:100C2000010416F4007F04D018F0020F01D044F044
:100C3000020416F4806F04D018F0040F01D044F0C1
:100C4000040416F4006F29D018F0700F26D008F0B5
:100C50007000402815D006DC102809D020280AD0C2
:100C6000302816D10AE050280ED0602811D10EE0AD
:100C700044F008040DE044F010040AE044F02004BD
:100C800007E044F0400404E044F0800401E044F450
:100C900080742868816921F07001816129680420CD
:100CA0004860002C05D0686A204368622846FFF738
:100CB000E7FEBDE8F09F70B50446002C03D094F821
:100CC000200010B104E0012070BD204600F0A8F81B
:100CD0002068016841F00101016000F007FB054652
:100CE000206840684FF0050610F0010F11D100F0A8
:100CF000FDFA401B0A2807D9606A40F400306062A0
:100D000084F82060012070BD2068406810F0010F59
:100D1000EDD02068016821F00201016000F0E6FAE0
:100D200005462068406810F0020F11D000F0DEFA8E
:100D3000401B0A2807D9606A40F40030606284F8DA
:100D40002060012070BD2068406810F0020FEDD1D6
:100D5000207E01283FD02068016821F080010160D9
:100D6000607E01283DD02068016821F040010160CB
:100D7000A07E01283BD02068016821F0200101609D
:100D8000E07E012839D02068016841F0100101603F
:100D9000207F012837D02068016821F00801016018
:100DA000607F012835D02068016821F004010160CE
:100DB000E168A068626908432169114308436168DA
:100DC000491E08432168C86100206062012084F840
:100DD0002000002070BD2068016841F080010160A2
:100DE000BEE72068016841F040010160C0E720686B
:100DF000016841F020010160C2E72068016821F02C
:100E000010010160C4E72068016841F00801016039
:100E1000C6E72068016841F004010160C8E70000EE
:100E200010B586B00446002002900390049005900F
:100E30001E492068884236D100BF1D48C06940F075
:100E400000701B49C8610846C06900F0007001903D
:100E500000BF00BF00BF0846806940F00400886101
:100E60000846806900F00400019000BF00BFC8146C
:100E7000029000200390049002A90E4800F01AF995
:100E80004FF480500290022003900320059002A9A5
:100E9000084800F00FF900221146142000F0A0FAD3
:100EA000142000F08FFA06B010BD0000006400406E
:100EB00000100240000801407047704770477047BB
:100EC000704770477047704770477047704770476A
:100ED00090F821100022022905D00421816380F8B6
:100EE00020200120704701680B6823F00E030B607F
:100EF00001680B6823F001030B6090F84030D0F8D4
:100F00003CC0012101FA03F3CCF8043080F8211031
:100F100080F82020104670472DE9F05F002490F8FB
:100F20002110022903D004218163012490E001688B
:100F30000A6822F00E020A6001680A6822F00102C3
:100F40000A60454A0168454BDFF814C1454D464EDD
:100F5000464FDFF81C81DFF81C91DFF81CA1DFF899
:100F60001CB1DFF81CE1914232D9994201D1012133
:100F70002BE0614501D1102127E0A94202D14FF4B5
:100F8000807122E0B14202D14FF480511DE0B9429C
:100F900002D14FF4803118E0414502D14FF4801165
:100FA00013E0494501D101210FE0514501D1102144
:100FB0000BE0594502D14FF4807106E0714502D132
:100FC0004FF4805101E04FF480312E4A116036E039
:100FD000994201D1012130E0614501D110212CE07D
:100FE000A94202D14FF4807127E0B14202D14FF4FF
:100FF000805122E0B94202D14FF480311DE04145D9
:1010000002D14FF4801118E0914202D14FF080716B
:1010100013E0494501D101210FE0514501D11021D3
:101020000BE0594502D14FF4807106E0714502D1C1
:101030004FF4805101E04FF48031134A5160012197
:1010400080F82110002180F82010416B01B1884701
:101050002046BDE8F09F00008000024008000240EA
:101060001C00024030000240440002405800024090
:101070006C000240080402401C040240300402409C
:1010800044040240040402400000024070B50446DB
:1010900000F02CF90546B4F1FF3F02D00448007877
:1010A000044400F023F9401BA042FAD370BD0000B5
:1010B000440000202DE9F84F4FF0000C00230A688F
:1010C000002A7DD0DFF8F8810F2708F1040909F123
:1010D000040A0AF1040B012202FA0CF60A683240F3
:1010E000B2426ED1DFF8DCE14C68A4EB0E0574452A
:1010F0002BD00DDC032C34D005DC34B3012C19D0FB
:10110000022C2FD11BE0112C16D0122C2AD119E061
:10111000B5F5881F19D006DCB5F5803F15D0B5F5BB
:10112000801F1FD111E0B5F5001F0ED0B5F5041FCB
:1011300018D10AE0CB6815E0CB681B1D12E0CB6824
:1011400008330FE0CB680C330CE08B6823B1012B24
:1011500004D00823466105E0042303E00823066168
:1011600000E00023B2F5807F01D2054601E000F1E6
:10117000040502D24FEA8C0403E0ACF108044FEA04
:1011800084042E6807FA04FE26EA0E0603FA04F425
:1011900046EA04042C604C6814F0805F11D04A4C7D
:1011A000A56945F00105A561A46904F00104009456
:1011B0002CF0030404F1804404F58034A66801E0B7
:1011C0007CE074E04FEA8C754FEA157507FA05FE6E
:1011D00026EA0E0EA0F18046B6F5843628D0A0F19E
:1011E0008046B6F5863625D0A0F18046B6F588361D
:1011F00022D0A0F18046B6F58A361FD0A0F18046F5
:10120000B6F58C361CD0A0F18046B6F58E3619D0D6
:10121000062606FA05F545EA0E05A5604C6814F4A5
:10122000803F11D0D8F800401443C8F8004010E0C7
:101230000026EEE70126ECE70226EAE70326E8E7C8
:101240000426E6E70526E4E7D8F800409443C8F80A
:1012500000404C6814F4003F05D0D9F80040144316
:10126000C9F8004004E0D9F800409443C9F80040B0
:101270004C6814F4801F05D0DAF800401443CAF813
:10128000004004E0DAF800409443CAF800404C689B
:1012900014F4001F05D0DBF800402243CBF80020F7
:1012A00005E0DBF8004024EA0202CBF800200CF154
:1012B000010C0A6832FA0CF27FF40DAFBDE8F88F2A
:1012C000000401400000111000100240C26821EA31
:1012D0000203114043EA014101617047002A01D035
:1012E000016170470904016170470000014880688E
:1012F00070470000440000200248816802781144D1
:10130000816070474400002010B50748016841F033
:1013100010010160032000F097F80F2000F006F89C
:1013200000F026F8002010BD0020024070B50446F1
:101330000D4D4FF47A712878B1FBF0F00B49096834
:10134000B1FBF0F000F04AFF08B1012070BD102C95
:1013500007D200222146501E00F042F86C600020A7
:1013600070BD012070BD000044000020500000202E
:1013700008B500BF1148806940F001000F4988613D
:101380000846806900F00100009000BF00BF00BF68
:101390000846C06940F08050C8610846C06900F046
:1013A0008050009000BF00BF00BF0549486820F092
:1013B000E06040F00070486000BF08BD00100240CF
:1013C0000000014000280ADB00F01F01012202FAA0
:1013D00001F14009800000F1E020C0F800117047E1
:1013E00010B4184B1B68C3F30223C3F1070CBCF104
:1013F000040F01D94FF0040C1C1D072C01D200234F
:1014000000E0DB1E012404FA0CFCACF1010C0CEA38
:101410000101994004FA03F35B1E1A4011430028AE
:1014200006DB00F1E020090180F8001410BC7047D1
:1014300000F00F0000F1E020090180F8141D10BC3D
:10144000704700000CED00E000F00700064A11684C
:101450004FF6FF03194041EA002040F0FD7040F0D4
:1014600080601060704700000CED00E0BFF34F8F0C
:1014700005480168054A01F4E06111430160BFF3CA
:101480004F8F00BFFDE700000CED00E00400FA05FF
:101490002DE9F04704460D46002C17D0DFF85C819B
:1014A000D8F8000000F00700A84212D2D8F80000D7
:1014B00020F007002843C8F80000D8F8000000F02A
:1014C0000700A84205D00120BDE8F0870120BDE853
:1014D000F08720684A4E10F0020F14D010F0040F6D
:1014E00003D0706840F4E0607060207810F0080F5E
:1014F00003D0706840F460507060706820F0F001B4
:10150000A06808437060207810F0010F3AD060683E
:10151000012806D002280BD0316811F0020F27D025
:101520000AE0316811F4003F06D10120BDE8F087E0
:10153000316811F0007F18D0716821F00301084371
:101540007060FFF7D3FE07467068616800F00C001A
:10155000B0EB810F16D041F28839FFF7C7FEC01BF0
:10156000484508D90320BDE8F0870120BDE8F08791
:101570000120BDE8F0877068616800F00C00B0EBF6
:10158000810FEAD1D8F8000000F00700A8420FD977
:10159000D8F8000020F007002843C8F80000D8F869
:1015A000000000F00700A84202D00120BDE8F0874B
:1015B000207810F0040F05D07068E16820F4E06036
:1015C00008437060207810F0080F06D07068216919
:1015D00020F4605040EAC100706000F03FF871688C
:1015E000084AC1F30311515CC84007490860074825
:1015F0000068FFF79BFE0020BDE8F0870020024056
:1016000000100240D83E0008500000204800002092
:1016100001480068704700005000002000B5FFF747
:10162000F7FF04494968044AC1F30221515CC840EC
:1016300000BD000000100240E83E000800B5FFF7C2
:10164000E7FF04494968044AC1F3C221515CC8401C
:1016500000BD000000100240E83E000885B015A063
:10166000836842680168C068039302920191049004
:1016700014A000680090144B5968144801F00C0243
:10168000042A11D0082A0FD101A8C1F38342805C3B
:1016900011F4803F0AD05968C1F340411DF8011090
:1016A0000A4A5043B0FBF1F005B07047084905B055
:1016B0004843704702030405060708090A0B0C0D8E
:1016C0000E0F1010010200000010024000127A00FC
:1016D00000093D002DE9F84F0446002C0FD020787A
:1016E000F84D10F0010F6CD0686800F00C00042871
:1016F0000CD0686800F00C00082803D010E001202E
:10170000BDE8F88F686810F4803F09D0286810F4AD
:10171000003F56D06068002853D10120BDE8F88F03
:101720006068B0F5803F15D0C8B1B0F5A02F1FD0CC
:10173000286820F480302860286820F48020286001
:10174000606858B3FFF7D2FD0646286810F4003FE2
:1017500017D036E0286840F480302860F0E7286829
:1017600020F480302860286820F480202860E7E793
:10177000286840F480202860286840F48030286081
:10178000DEE7FFF7B3FD801B642802D90320BDE824
:10179000F88F286810F4003FF3D012E0FFF7A6FDA1
:1017A0000646286810F4003F0BD0FFF79FFD801B12
:1017B000642802D90320BDE8F88F286810F4003FA0
:1017C000F3D12078C04F10F0020F4FF0010B4FF013
:1017D000000854D0686810F00C0F14D0686800F04E
:1017E0000C00082803D1686810F4803F0BD02069F2
:1017F00078B3C7F800B0FFF779FD0646286810F007
:10180000020F12D01DE0286810F0020F05D02069E9
:10181000012802D00120BDE8F88F2868616920F016
:10182000F80040EAC100286029E0FFF75FFD801B57
:10183000022802D90320BDE8F88F286810F0020FB3
:10184000F3D02868616920F0F80040EAC100286000
:1018500015E0FFE7C7F80080FFF748FD0646286857
:1018600010F0020F0BD0FFF741FD801B022802D9B8
:101870000320BDE8F88F286810F0020FF3D120781C
:1018800010F0080F30D09148A169C1B1C0F800B084
:10189000FFF72CFD0646686A10F0020F0BD1FFF728
:1018A00025FD801B022802D90320BDE8F88F686A55
:1018B00010F0020FF3D0012001F064F814E0C0F83A
:1018C0000080FFF713FD0646686A10F0020F0BD088
:1018D000FFF70CFD801B022802D90320BDE8F88F1A
:1018E000686A10F0020FF3D1207810F0040F6FD067
:1018F0000026E86910F0805F08D1E86940F0805068
:10190000E861E86900F0805000900126DFF8C0A18E
:10191000DAF8000010F4807F1BD1DAF8000040F400
:101920008070CAF80000FFF7E1FC8146DAF8000099
:1019300010F4807F0DD1FFF7D9FCA0EB09006428DB
:1019400002D90320BDE8F88FDAF8000010F4807F98
:10195000F1D0E068012816D0D0B1052821D0286A3E
:1019600020F001002862286A20F004002862E06864
:1019700041F2883A68B3FFF7B9FC8146286A10F053
:10198000020F17D03AE0286A40F001002862EEE723
:10199000286A20F001002862286A20F004002862EA
:1019A000E5E7286A40F004002862286A40F0010058
:1019B0002862DCE7FFF79AFCA0EB0900504502D94A
:1019C0000320BDE8F88F286A10F0020FF2D015E06E
:1019D0001AE0FFE7FFF78AFC8146286A10F0020F41
:1019E0000CD0FFF783FCA0EB0900504502D903207F
:1019F000BDE8F88F286A10F0020FF2D1012E03D152
:101A0000E86920F08050E861E069E8B3696801F0B6
:101A10000C0108295ED0022810D0C7F86080FFF7BB
:101A200065FC0446286810F0007F66D0FFF75EFC76
:101A3000001B022841D90320BDE8F88FC7F8608059
:101A4000FFF754FC0646286810F0007F0BD0FFF724
:101A50004DFC801B022802D90320BDE8F88F2868BE
:101A600010F0007FF3D1206AB0F5803F05D168689F
:101A7000A16820F4003008436860616A206A084366
:101A8000696821F4741100E037E008436860C7F822
:101A900060B0FFF72BFC0446286810F0007F2CD1C3
:101AA000FFF724FC001B022802D90320BDE8F88FB1
:101AB000286810F0007FF3D01FE0286810F0007F46
:101AC000B4D11AE0001002400000424280044242B9
:101AD0000070004001280DD06868226A00F480314F
:101AE000914204D1616A00F47010884205D001204F
:101AF000BDE8F88F0120BDE8F88F0020BDE8F88F21
:101B00007047000038B5044620684268816811F0CB
:101B1000400F0BD111F0010F08D012F0400F05D08B
:101B2000216C01B02046BDE83040084711F0020F9B
:101B300008D012F0800F05D0616C01B02046BDE8DE
:101B40003040084701F0200301F0400C53EA0C0339
:101B50004CD012F0200F49D011F0400F0AD094F869
:101B60005130032B43D0636D43F004036365C368B6
:101B70008368009311F0200F09D0616D41F00101DD
:101B8000616581680091016821F040010160606D2C
:101B900000282BD02068416821F0E001416001203D
:101BA00084F8510002F0020002F00101084322D043
:101BB0002068416821F003014160114DE06C40B1A3
:101BC0004563E06CFFF7A8F918B1606D40F0400084
:101BD0006065A06C002809D04563A06CFFF79CF9F4
:101BE000002803D0606D40F04000606538BDC168DA
:101BF0008068009038BD2046FFF782FF38BD0000A6
:101C0000512C000870B50446002C09D0606A0025EC
:101C100040B125616561A56294F8510040B10CE0C6
:101C2000012070BD6068B0F5827FF4D0E561F2E715
:101C300084F85050204600F03FF8022084F851000C
:101C40002068016821F040010160A088218900F42A
:101C5000827001F404410843A18901F40061084342
:101C6000217C01F002010843217D01F001010843BC
:101C7000218B01F400710843217F01F038010843F2
:101C800094F8201001F080010843218D01F40051E7
:101C9000084321680860A169042000EA1140216816
:101CA00048602068C16921F40061C1616565012057
:101CB00084F85100002070BD10B586B004460020A5
:101CC000029003900490059059492068884236D1CB
:101CD00000BF5848806940F48050564988610846E2
:101CE000806900F48050019000BF00BF00BF08462B
:101CF000806940F0040088610846806900F00400B3
:101D0000019000BF00BFA02002900220039003209A
:101D1000059002A94848FFF7CDF940200290002025
:101D20000390049002A94448FFF7C4F90022114629
:101D30002320FFF755FB2320FFF744FB76E03F49C4
:101D40002068884238D100BF3A48C06940F48040DA
:101D50003849C8610846C06900F48040019000BF5E
:101D600000BF00BF0846806940F00800886108464F
:101D7000806900F00800019000BF00BF4FF42040D0
:101D80000290022003900320059002A92C48FFF73F
:101D900091F94FF48040029000200390049002A932
:101DA0002748FFF787F9002211462420FFF718FB88
:101DB0002420FFF707FB39E022492068884235D10B
:101DC00000BF1C48C06940F400401A49C861084679
:101DD000C06900F40040019000BF00BF00BF08468A
:101DE000806940F0080088610846806900F00800BA
:101DF000019000BF00BF2820029002200390032022
:101E0000059002A90E48FFF755F910200290002016
:101E10000390049002A90A48FFF74CF900221146EA
:101E20003320FFF7DDFA3320FFF7CCFA06B010BD00
:101E3000003001400010024000080140003800401E
:101E4000000C0140003C00402DE9F84F04468B4651
:101E500092461D46002694F8500001280DD04FF000
:101E6000010984F85090FFF741FA074694F85100B1
:101E7000B046012804D00226ADE00220BDE8F88F6C
:101E8000BBF1000F1CD05FEA0A0019D0032084F8D0
:101E90005100C4F85480C4F830B0A4F834A0A4F8B9
:101EA00036A0C4F83880A4F83C80A4F83E80C4F87A
:101EB0004480C4F84080A068B0F5004F02D00BE029
:101EC000012688E02068016821F040010160206857
:101ED000016841F4804101602068016811F0400F01
:101EE00003D1016841F040010160E068B0F5006F86
:101EF00005D0606888B3BAF1010F31D03AE060686C
:101F000010B1BAF1010F09D1206B21680088C860B7
:101F1000206B801C2063E08E401EE086E08E00284F
:101F200045D02068816811F0020F09D0216B098823
:101F3000C160206B801C2063E08E401EE08608E0BC
:101F4000FFF7D4F9C01BA84202D3B5F1FF3F05D17A
:101F500025B1E08E0028E4D129E001E003263AE033
:101F6000206B216800780873206B401C2063E08E92
:101F7000401EE086E08ED0B12068816811F0020F2B
:101F800009D0216B09780173206B401C2063E08E1F
:101F9000401EE08608E0FFF7A9F9C01BA84202D363
:101FA000B5F1FF3F0ED16DB1E08E0028E4D13A4685
:101FB0002946204600F054FE08B120206065A06844
:101FC00010B105E0032606E02068C1688068009033
:101FD000606D00B1012684F8519084F8508030463D
:101FE000BDE8F88F2DE9F84F04460A9E8A469346CD
:101FF0001F4601254FF0000894F8500001280ED02C
:10200000012084F85000FFF771F9814694F85100DF
:10201000616801280ED0B1F5827F07D102E002206D
:10202000BDE8F88FA16809B9042803D04FF0020871
:1020300000F0CBB8BAF1000F1DD0BBF1000F1AD0E1
:10204000380018D094F85100042802D0052084F8F4
:10205000510000206065C4F838B0E787A787C4F84E
:1020600030A0E786A786206460642068016811F0CC
:10207000400F03D006E04FF00108A6E0016841F0F0
:1020800040010160E068B0F5006F05D0606800288D
:1020900048D0012F46D07EE0606808B1012F3AD1C8
:1020A000206B21680088C860206B801C2063E08E54
:1020B000401EE0862FE02068816811F0020F0DD0ED
:1020C000E18E59B1012D09D1216B0988C160206BC6
:1020D000801C2063E08E401EE08600252068816819
:1020E00011F0010F0BD0E18F49B1C068A16B0880DE
:1020F000A06B801CA063E08F401EE0870125FFF7E6
:10210000F5F8A0EB0900B04205D3B6F1FF3F02D0CD
:102110004FF0030859E0E08E0028CCD1E08F002872
:10212000C9D13EE0206B216800780873206B401C09
:102130002063E08E401EE0862DE02068816811F06B
:10214000020F0DD0E18E59B1012D09D1216B097813
:102150000173206B401C2063E08E401EE08600254A
:102160002068816811F0010F0BD0E18F49B1C06880
:10217000A16B0870A06B401CA063E08F401EE0873D
:102180000125FFF7B3F8A0EB0900B04202D3B6F186
:10219000FF3F11D186B1E08E0028CED1E08F00281C
:1021A000CBD14A463146204600F05AFD38B14FF0B7
:1021B00001082020606508E04FF0030805E0A068F2
:1021C00018B92068C16880680090012084F8510027
:1021D000002084F850004046BDE8F88F401EB0F162
:1021E000807F01D3012070474FF0E0214861044A0D
:1021F000F0201070002088610720086100207047DF
:1022000023ED00E070477047F8B504462268106877
:10221000D168536900F00F0CBCF1000F0AD110F027
:10222000200F07D011F0200F04D02046BDE8F84061
:1022300000F027BE0025BCF1000F6DD003F0010CAB
:1022400001F490765CEA060666D010F0010F06D025
:1022500011F4807F03D0226C42F00102226410F05E
:10226000040F06D013F0010F03D0226C42F00202DB
:10227000226410F0020F06D013F0010F03D0226C7D
:1022800042F00402226410F0080F08D001F020028E
:1022900052EA0C0203D0226C42F008022264226C43
:1022A000002A2FD010F0200F05D011F0200F02D0FF
:1022B000204600F0E6FD20684069C0F38010216CE4
:1022C00011F0080F00D110B3204600F0B5FD2068D2
:1022D000416911F0400F16D0416921F04001416180
:1022E000A06B60B147494163A06BFEF715FE002863
:1022F00008D0A06B416B01B0BDE8F0400847204614
:10230000FFF781FFF8BD2046FFF77DFFF8BD2046AF
:10231000FFF779FF2564F8BD236B012B5BD110F02B
:10232000100F58D011F0100F55D010685068009061
:1023300050694FF0200310F0400F2ED0A16B0868B9
:10234000406880B20028E6D0B4F82CC08445E2D9B9
:10235000E0858869202818D0D06820F48070D0608B
:102360002068416921F0010141612068416921F043
:102370004001416184F83E3025632068C16821F046
:102380001001C160A06BFEF7A3FDA08DE18D401A86
:1023900081B22046FFF736FFF8BDA08DE18D401ACF
:1023A00081B2E08D0028F7D00029F5D0D06820F464
:1023B0009070D0602068426922F00102426184F886
:1023C0003E3025632068C26822F01002C2602046B9
:1023D000FFF718FFF8BD10F0800F07D011F0800F45
:1023E00004D02046BDE8F84000F00EBE10F0400FCB
:1023F000F0D011F0400FEDD02046BDE8F84000F0DD
:1024000033BD0000292E000870B50446002C04D00E
:1024100094F83D00002510B106E0012070BD84F85D
:102420003C50204600F022F8242084F83D0020682B
:10243000C16821F40051C160204600F081FD206890
:10244000016921F4904101612068416921F02A016C
:1024500041612068C16841F40051C16025642020B9
:1024600084F83D0084F83E00002070BD10B586B0B1
:102470000446002002900390049005903B49206898
:10248000884237D100BF3A48806940F480403849DB
:1024900088610846806900F48040019000BF00BF59
:1024A00000BF0846806940F00400886108468069E2
:1024B00000F00400019000BF00BF48150290022008
:1024C00003900320059002A92A48FEF7F3FD4FF47C
:1024D0008060029000200390049002A92548FEF736
:1024E000E9FD002211462520FEF77AFF2520FEF7A0
:1024F00069FF39E020492068884235D100BF1C4877
:10250000C06940F400301A49C8610846C06900F447
:102510000030019000BF00BF00BF0846806940F056
:10252000040088610846806900F00400019000BF43
:1025300000BF04200290022003900320059002A90E
:102540000C48FEF7B7FD082002900020039004908D
:1025500002A90848FEF7AEFD002211462620FEF72C
:102560003FFF2620FEF72EFF06B010BD00380140C9
:1025700000100240000801400044004070472DE96F
:10258000F84304460E4615461F4694F83D002028A1
:1025900002D00220BDE8F883C6B1BDB194F83C007A
:1025A000012816D0012084F83C004FF00009C4F83F
:1025B0004090212084F83D00FEF798FE8046A584D7
:1025C000E584A068B0F5805F06D007E00120BDE893
:1025D000F8830220BDE8F883206980B135460026E3
:1025E00084F83C90E08CB8B143460022802120461C
:1025F000009700F038FD20B10320BDE8F8830025E6
:10260000EEE7A5B12168287848606D1CE08C401E7B
:10261000E084E08C0028E7D1434600224021204698
:10262000009700F020FD48B10320BDE8F883308812
:102630002168C0F308004860B61CE7E7202084F852
:102640003D000020BDE8F883704700BFFEE70000B2
:1026500010B50D480D4908600C20486000210B485A
:102660008160C1604FF44031016100214161017618
:1026700041768176C17601774177FEF71CFB08B180
:10268000FEF779F910BD00000064004078050020D5
:1026900000B585B00020019002900390049000BF27
:1026A0005A48806940F0100058498861084680699E
:1026B00000F01000009000BF00BF00BF0846806916
:1026C00040F0040088610846806900F00400009032
:1026D00000BF00BF00BF0846806940F00800886165
:1026E0000846806900F00800009000BF00BF00BFEE
:1026F0000846806940F0200088610846806900F043
:102700002000009000BF00BF00BF0846806940F471
:10271000807088610846806900F48070009000BF76
:1027200000BF00224FF481713948FEF7D7FD002227
:102730004FF40C713748FEF7D1FD002240F2C7116B
:102740003548FEF7CBFD00224FF4F8513348FEF731
:10275000C5FD00224FF4E8413148FEF7BFFD0120DE
:10276000019000200290039001A92948FEF7A2FCE5
:102770004FF481700190012002900020039002200C
:10278000049001A92248FEF795FC4FF40C700190CB
:1027900001200290002003900220049001A91D480E
:1027A000FEF788FC40F2C710019001200290002043
:1027B00003900220049001A91748FEF77BFC4FF418
:1027C000F850019001200290002003900220049014
:1027D00001A91248FEF76EFC4FF4E8400190012079
:1027E0000290002003900220049001A90C48FEF7FB
:1027F00061FC4FF40840019000200290039001A971
:102800000748FEF757FC05B000BD0000001002406D
:102810000008014000100140000C0140001401407C
:102820000020014010B51048104908604FF4827034
:10283000486000210D4881604FF40061C1600021B3
:10284000016101214161490281613021C1610021A1
:102850000162416281620A21C162FFF7D3F908B1C6
:10286000FEF789F810BD0000003001408806002006
:1028700010B51048104908604FF48270486000217C
:102880000D4881604FF40061C160002101610121A8
:102890004161490281613021C161002101624162CF
:1028A00081620A21C162FFF7ADF908B1FEF763F852
:1028B00010BD000000380040E006002010B51048B0
:1028C000104908604FF48270486000210D48816013
:1028D0004FF40061C16000210161012141614902A1
:1028E00081613021C16100210162416281620A215E
:1028F000C162FFF787F908B1FEF73DF810BD00008F
:10290000003C00403807002010B50B480B49086018
:102910004FF4E1304860002108488160C1600161E6
:102920000C21416100218161C161FFF76DFD08B19A
:10293000FEF721F810BD000000380140900700208C
:1029400010B50B480B4908604FF4E1304860002196
:1029500008488160C16001610C21416100218161F1
:10296000C161FFF751FD08B1FEF705F810BD000089
:1029700000440040D407002000BFFEE700BFFEE790
:102980007047000081B007494FF4FA520968B1FB63
:10299000F2F14843009000BF0098411E0091FAD226
:1029A00001B070475000002070B58AB0064619A1EA
:1029B00003C9CDE9080119A103C9CDE90601002029
:1029C000009001900290039004A9304600F02CF88A
:1029D00000250DE05DF82500C5F1030104AA32F8D9
:1029E0001110C1F30D0108444DF82500681CC5B253
:1029F000042DEFDB002408E03DF82400094901EB39
:102A0000C60121F81400601CC4B2042CF4DB0AB027
:102A100070BD0000FFFFFFFFFFFFFFFF014001400F
:102A200001400140A005002030B585B004460D46A8
:102A30002BA103C9CDE903012BA103C9CDE90101F4
:102A400004EB44022A4B03EB8202918804EB44021C
:102A500053F822000022FEF741FC04EB4401244A13
:102A600002EB81014FF0FF330422886803A9FFF7CE
:102A7000EBF904EB44021E4B03EB8202918804EB5A
:102A8000440253F822000122FEF728FC04EB440222
:102A9000174B03EB8202918804EB440253F82200A7
:102AA0000022FEF71BFC4FF0FF3004EB4401104AFC
:102AB00002EB8101009004232A46886803A9FFF7EE
:102AC00091FA04EB44020A4B03EB8202918804EB77
:102AD000440253F822000122FEF700FC05B030BD8D
:102AE000FFFFFFFFFFFFFFFF0140014001400140EA
:102AF000280000202DE9F0438DB03F48B0F90000D8
:102B0000C0F1010006B2002570E02846FFF74CFF37
:102B1000002456E0394800EBC50030F8140038496D
:102B200001EBC50131F81410401A00B208A921F8D0
:102B3000140008A830F9140010F5005F07DA08A89F
:102B400030F8140000F5804000B221F8140008A805
:102B500030F91400B0F5005F08DD08A830F8140063
:102B6000A0F5804000B208A921F8140008A830F8A8
:102B7000140003A921F8140008A830F81400214912
:102B800001EB061101EBC50121F8140008A931F988
:102B90001400FDF770FC80464FF08C41FDF74CFBB4
:102BA00007461949FDF716FB81464846FDF76CFCC0
:102BB000621CCDE90001691C14A000F0B5FA601C8C
:102BC000C4B2042CA6DB0095BDF82670BBB2BDF8DC
:102BD0002470BAB2BDF82270B9B2BDF82070B8B294
:102BE00000F0BEF804480680681CC5B2022D8CDBDC
:102BF0000DB0BDE8F083000040000020A0050020DB
:102C0000B0050020C005002000003443616E676CF1
:102C10006525642D2564203D20252E33660A00009D
:102C200010B50248FEF76EFF10BD000088060020B8
:102C300010B50248FEF766FF10BD0000E006002058
:102C400010B50248FEF75EFF10BD000038070020F7
:102C500010B5406A0021C187C186FEF751FF10BD43
:102C600038B504460B46009200228021204600F031
:102C700009F828B1606D40F020006065032038BD80
:102C8000002038BD2DE9F84304460F46904699468A
:102C9000089DFEF72BFB401BA9EB0005FEF726FB6A
:102CA00006462D480068C0F3CB306843009020688A
:102CB000806837EA00000ED00020404546D0B9F1C8
:102CC000FF3F3BD0FEF712FB801BA84205D225B187
:102CD000009870B32FE00120EFE72068416821F0F1
:102CE000E00141606068B0F5827F0BD1A068B0F56B
:102CF000004F02D0B0F5806F04D12068016821F048
:102D000040010160A06AB0F5005F09D12068016848
:102D100021F4005101602068016841F40051016014
:102D2000012084F85100002084F850000320BDE801
:102D3000F883FFE700250098401E00902068806817
:102D400037EA000005D000204045B8D10020BDE89A
:102D5000F8830120F8E700005000002070470000D1
:102D60002DE9F04704460D4616461F46DDF8209033
:102D700009F581701FFA80F8200A0D4908704C701F
:102D8000280A8870CD70300A08714E71380A88712F
:102D9000CF714FF400710748FEF798FA4FF4FA70BC
:102DA000FEF774F902494046FDF7CAFDBDE8F08719
:102DB0001C0000200010014010B5FEF79DFA10BD68
:102DC00000B58FB0282105A8FDF7F9F91421684650
:102DD000FDF7F5F90120059000040690002007900A
:102DE0000120099002200C90C1030D914FF4E011D5
:102DF0000E9105A8FEF76EFC08B1FDF7BCFD0F2093
:102E0000009002200190002002904FF48060039017
:102E10000020049002216846FEF73AFB08B1FDF756
:102E2000AAFD0FB000BD704710B5406A0021C185F2
:102E3000C184FFF7E8F910BD0168CA6822F49072F6
:102E4000CA6001684A6922F001024A61016B0129E6
:102E500004D10168CA6822F01002CA60202180F8FB
:102E60003E1000210163704710B50168CA6822F066
:102E70004002CA60202180F83D10FFF7E5FB0020EA
:102E800010BD08B590F83E10222901D0022008BDDF
:102E90008268B2F5805F01D1016929B1816AB2F51A
:102EA000805F1DD052B10BE0816A02685268C2F3A4
:102EB00008020A80816A891C816209E002697AB18C
:102EC0000268526802F07F020A70816A491C8162BE
:102ED000C18D491E0904090CC18505D0002008BD1B
:102EE000026852680A70F0E70168CA6822F020029E
:102EF000CA600168CA6822F48072CA6001684A69BF
:102F000022F001024A61202180F83E10016B012964
:102F100003D0FFF733FB002008BD002101630168E7
:102F2000CA6822F01002CA6001680A6812F0100F25
:102F300002D00A6849680091818DFFF763F9EAE7DA
:102F400070B5044620680169E26821F440511143DC
:102F500001612169A0680843616901432068C26872
:102F600022F4037222F4A0521143C1602068416927
:102F7000A26921F44071114341612068A0F18041B0
:102F8000B1F59C313AD0FEF749FB00EBC00101EBF3
:102F9000001061681B4A8900B0FBF1F3A2FB0353E8
:102FA000B0FBF1FC5B096FF018056B430CEB83037E
:102FB0004FF0320C0CEB0313A2FB03535B0903F03D
:102FC000F005B0FBF1F3A2FB03635B0905EB031310
:102FD000B0FBF1F5B0FBF1F0A2FB001040096FF07F
:102FE0001801484305EB80000CEB0010A2FB001019
:102FF0002168C0F343101844886070BDFEF71EFBC3
:10300000C3E700001F85EB5190F83D10212901D046
:10301000022070478168B1F5805F01D1016961B11B
:10302000016A4A1C0262026809785160C18C491E1B
:103030000904090CC1840AD013E0016A02680988F6
:10304000C1F308015160016A891C0162EEE7016861
:10305000CA6822F08002CA600068C16841F040017D
:10306000C160002070472DE9F0410446069D884666
:1030700017461E462068006838EA000020D000206D
:10308000B84227D1B5F1FF3F1CD025B1FEF72EF98C
:10309000801BA84216D92068C16821F4D071C16094
:1030A0002068416921F001014161202084F83D0040
:1030B00084F83E00002084F83C000320BDE8F08145
:1030C0000120DDE72068006838EA000005D0002014
:1030D000B842D7D00020BDE8F0810120F8E7000019
:1030E00008B5074800684068C0B2009001216846F2
:1030F00000F0D0FC00F080FD0148FFF785F808BD26
:103100009007002010B50248FFF77EF810BD0000C0
:10311000D407002010B50248FDF7B3FC10BD000035
:103120007805002000BFFEE70FB4054B10B503A9DA
:10313000044A029800F0DAF810BC5DF814FB0000B5
:10314000F53900085400002002E008C8121F08C129
:10315000002AFAD170477047002001E001C1121F18
:10316000002AFBD1704700002DE9FF5F82B00021EB
:10317000DDE90430020DDDF840B0034318D044F619
:103180001050A2F2FF3242431514119801281FD0AB
:10319000A5EB0B00401C5FEA000A4FF000064E4F03
:1031A000DFF83891B046504615D5CAF1000413E057
:1031B000119801244AA3012801D16FEA0B0102985A
:1031C000119AC0E90031C0E9024206B0BDE8F09FA3
:1031D000CBF10000DFE704460021404A491842EBEA
:1031E0000450CDE9001012E0E00707D032463B461C
:1031F00040464946FDF75EF88046894632463B46E2
:1032000010461946FDF756F806460F466410002C86
:10321000EAD1DDE90401DDE90023BAF1000F06DAA5
:10322000FDF748F842464B46FDF744F805E0FDF748
:10323000B3F842464B46FDF7AFF804460E4600226F
:10324000284BFDF7EBFA03D84FF0FF30014607E0BB
:103250000022254B20463146FDF720FAFDF7C5FA3E
:10326000102409E0002C0ADB0A220023FDF751F9A3
:10327000039B30321A55641E50EA0102F2D1641CDD
:10328000039AC4F111031444119A012A03D00122B4
:1032900008430DD10AE0084304D000204FF0110B81
:1032A000119072E7A3EB0B056D1E0DE05B4504DD8D
:1032B0004FF0000205F1010504E003DA4FF00002CF
:1032C000A5F10105002AECD002981199C0E902315C
:1032D000C0E9004579E70000000014400000F03F1D
:1032E000300000000000F0430000E03F2DE9FF4FF8
:1032F00095B09A46884606460025EEE1252877D106
:1033000000242746F94A0121039400E0044316F8FB
:10331000013F203B01FA03F01042F7D130782A2810
:1033200011D06FF02F033078A0F13002092A16D89F
:10333000039A44F0020402EB820203EB42021044BF
:10334000761C0390EFE758F8042B0392002A03DA67
:10335000504244F40054039044F00204761C307848
:103360002E2816D116F8010F44F004042A280DD097
:103370006FF02F023078A0F13003092B09D807EB4A
:10338000870302EB4303C718761CF3E758F8047B66
:10339000761C30786C280FD006DC4C2817D06828B3
:1033A0000DD06A2814D104E0742810D07A280FD1E7
:1033B0000DE044F400140AE044F4801401E044F405
:1033C00040147278824202D104F58014761C761C77
:1033D000307866280BD013DC582877D009DC002819
:1033E00075D04528F6D04628F4D047281AD193E165
:1033F00018E0632835D0642879D0652812D18BE194
:10340000702873D008DC6728F1D069286FD06E2847
:103410000DD06F2806D1ACE073282CD0752874D05D
:10342000782853D05246179990476D1C54E1C4F345
:103430000250022809D003280DD0D8F80010042823
:103440000DD00D6008F1040846E1D8F80010EA1725
:10345000C1E90052F6E7D8F800100D80F2E70D70D0
:10346000F0E718F8041B8DF8001000208DF801001B
:10347000EB46012003E058F804BB4FF0FF30610732
:103480004FF0000102D40DE009F101018946B94273
:103490000FDA8145F8DB1BF809100029F4D108E0A8
:1034A00009F1010189468142FADB1BF80910002964
:1034B000F6D103985346A0EB090721463846179AE0
:1034C00000F080FA284400EB090507E044E008E139
:1034D0000DE01BF8010B524617999047B9F101090D
:1034E000F7D2534621463846179AF2E039E00A21CE
:1034F000C4F302524FF0000B0091022A06D058F894
:10350000040BC117032A09D00AE023E008F10700E1
:1035100020F00702F2E80201904605E000B2C11770
:10352000042A01D140B2C117002906DA0A46002157
:10353000404261EB02012D2202E0220504D52B223C
:103540008DF80420012203E0E20701D02022F7E7F2
:10355000914657E00A2100E010214FF0000B009146
:103560000BE010214FF0000B44F0040408270091F9
:1035700003E008204FF0000B0090C4F30252022A2F
:1035800005D058F8040B0021032A08D008E008F100
:10359000070020F00702F2E80201904603E080B243
:1035A000042A00D1C0B24FF0000922072AD5327890
:1035B000702A07D0DDF800C08CF0100C5CEA0B0C10
:1035C00005D00EE040228DF80420012208E050EAE8
:1035D000010306D030238DF804308DF80520022237
:1035E0009146009B83F0080353EA0B030AD150EA8B
:1035F000010201D1620705D530228DF804204FF079
:1036000001097F1E3278582A04D039A20C920CAAE4
:1036100002920BE03BA2F9E75B46009AFCF779FFC8
:103620000C9B9B5C029A521E0292137050EA01029C
:10363000F2D1029804A9081A00F1200B600702D504
:1036400024F4803400E001275F4502DDA7EB0B0086
:1036500000E0002000EB0B01009003984944401A61
:103660000390E00306D453462146179A039800F0CE
:10367000A9F90544002706E001A85246C05D179944
:1036800090476D1C7F1C4F45F6DBE0030CD553467D
:103690002146179A039800F095F9054404E030207C
:1036A0005246179990476D1C0099481E00900029BA
:1036B000F5DC08E00298029952460078491C029114
:1036C000179990476D1CBBF10001ABF1010BF1DCC8
:1036D0005BE100F065F90544761C307800287FF442
:1036E0000DAE19B02846BDE8F08F00000928010092
:1036F0003031323334353637383961626364656668
:103700000000000030313233343536373839414229
:103710004344454600000000600700D4062708F136
:10372000070020F00700F0E80223804603F0004C79
:103730005FEA0C0001D097A009E0200501D596A012
:1037400005E0E00701D095A001E0AFF24C00139036
:10375000307823F0004365280CD006DC452809D0DA
:1037600046281DD047287FD13BE0662818D067281F
:103770007AD136E00021112F01DB112000E0781C06
:10378000CDE9000104A90CA8FFF7EEFCDDE90D016D
:103790000C9A4FF0000B07F10109109200914EE0D6
:1037A0004FF000400097CDE9011004A90CA8FFF7E5
:1037B000DBFCDDE90D020C9B0F994FF0000B9146ED
:1037C0001093009211B9791C00EB0109B7EB0900C5
:1037D00003D4C0F1FF3B07F10109A9EB07000190F9
:1037E00042E0012F00DA01270021112F01DD112015
:1037F00000E03846CDE9000104A90CA8FFF7B4FCAD
:10380000DDE90D010C9A00914FF0000BB9461092C2
:1038100021070FD4009A4A4503DA914601E0A9F145
:103820000109B9F1010F05DD109AA9F10101515CFF
:103830003029F4D0B84202DA10F1040F03DA012182
:10384000CDE9011010E0002803DC8344A9EB00015E
:1038500002E0411C494500DD8946A0EB0B00401CFD
:1038600001904FF000400290200705D40198484590
:1038700002DB4FF0FF30019000208DF84B000298E2
:103880000DF14B07B0F1004F25D002200C902B20FA
:103890000D90029800280CDA404202902D200D90E5
:1038A00007E00A210298FCF71EFE3031029007F86B
:1038B000011D0C99481E0C900029F2DC029800288A
:1038C000EFD1791E0D980870307800F0200040F09C
:1038D000450007F8020D11A8C01BC01D02901398E7
:1038E000007800B1012000EB0901019801EBE071C3
:1038F000029801440398401A401E0390E00306D446
:1039000053462146179A039800F05CF80544139833
:10391000007818B15246179990476D1CE00323D5E3
:1039200053462146179A039800F04CF805441BE0D3
:10393000BBF1000F07DB0098584504DD109817997C
:1039400010F80B0001E0179930205246904701987B
:103950000BF1010B401E05F10105019004D12E2051
:103960005246179990476D1CB9F10001A9F1010960
:10397000DEDC05E017F8010B5246179990476D1CE5
:103980000299481E02900029F4DC53462146179AFA
:1039900003989EE62D0000002B0000002000000090
:1039A0002DE9F041044600251E461746880404D43C
:1039B00005E039462020B0476D1C641EF9D5284625
:1039C000BDE8F0812DE9F041044600251E469046F1
:1039D000C80301D5302700E02027880404D505E07E
:1039E00041463846B0476D1C641EF9D52846BDE8EF
:1039F000F081000038B504460D46E0B20090022385
:103A0000012269460248FEF7BAFD204638BD000093
:103A1000900700200246081D00F07F00105C7047F0
:103A20000246481D00F07F00105C7047FDF76CFCFB
:103A3000FFF7C6F9FEF72CFEFEF7F4FEFEF718FFBF
:103A4000FEF73CFFFEF704FEFEF75EFFFEF778FF91
:103A5000012211020748FDF741FCFCF72BFF06A0ED
:103A6000FFF762FB04E0FFF745F83220FDF70EFB9D
:103A7000F9E70000000801405A45524F2072657373
:103A80006574207375636365737366756C6C7921F7
:103A90000D0A000038B505460C460A490094CA884C
:103AA0002B460868802100F0B6F90649C988081934
:103AB000C11700EB5161C911A0EBC111014AD180BE
:103AC00038BD0000980100202DE9F04706460F465A
:103AD0004FF0FF0900244FF0FF384649CB888A8811
:103AE0000889802100F086F984B2052C02DA484664
:103AF000BDE8F0873F48408940BB3E498A8823465D
:103B00000868802100F044F90FFA80F8B8F1000F3E
:103B10000EDB012037494881A1F80480CB888A88D0
:103B20000889802100F066F905280FDA4846DFE7AA
:103B3000304989882144881EC11700EB5161C911A1
:103B4000A0EBC1112B4A91804846D1E72948008952
:103B500060B9284A91881068FFF75CFF2549088101
:103B600008460089A04201DD4846C1E72148808817
:103B7000204909890844802816DD1E488088C0F144
:103B8000800085B21B4800681A4A928881182A462C
:103B90003046FCF7FBFA174B1B895A1B154B701963
:103BA0001968FCF7F3FA09E012480068114B9B888A
:103BB000C118104802893046FCF7E8FA0D48008920
:103BC00038800C4A91881068FFF72AFF814609491E
:103BD0008988084A12898818C11700EB5161C911F8
:103BE000A0EBC111034A9180002011460881488151
:103BF00048467DE79801002030B5C7B00020069008
:103C0000FF24039004900590009001900290B2E090
:103C100006A907A8FFF758FF0446132C78D006DC46
:103C2000102C0CD0112C77D0122C73D194E0142CC2
:103C300071D0FF2CF9D14FF0FF3047B030BD9DF867
:103C40001F004D49087007A8407A4FF07F4101EAF4
:103C5000006007A9097A4FF47F0202EA0141084394
:103C600007A9C979121202EA0121084307A9897933
:103C700008434249404A127841F8220007A8407B95
:103C80004FF07F4101EA006007A9097B4FF47F02F2
:103C900002EA0141084307A9C97A121202EA012186
:103CA000084307A9897A08433549334A127841F80D
:103CB000220007A8407C4FF07F4101EA006007A97D
:103CC000097C4FF47F0202EA0141084307A9C97B3E
:103CD000121202EA0121084307A9897B08432949F6
:103CE000254A127841F822000846234D2D7850F8D5
:103CF00025302348204D2D7850F825201F481E4D93
:103D00002D7850F825101C48007800F0A7F831E015
:103D100026E001E02BE027E09DF81F00164908701F
:103D200007A8407A4FF07F4101EA006007A9097AAD
:103D30004FF47F0202EA0141084307A9C979121230
:103D400002EA0121084307A9897908430E490A4A72
:103D5000127841F822000DE001200C49087009E0BA
:103D600000200A49087005E0FDF780FB02E04FF0F3
:103D7000FF3062E700BF4BE7000000205800002042
:103D8000A8000020F80000204801002001000020C9
:103D9000F0B505460C46002100BF22E0501890FB0C
:103DA000F4F604FB1600285C06025018401C90FB39
:103DB000F4F704FB1700285C46EA00405618B61CCE
:103DC00096FBF4F704FB1766AE5D3043084EB04235
:103DD00005D1501890FBF4F604FB1600F0BD481C0A
:103DE00081B2981E8842D9DC4FF0FF30F6E7000020
:103DF00046424C0030B5044600259A4202DC981A2F
:103E000085B202E0881A184485B2AC4201DD002078
:103E100030BD2846FCE72DE9F04705460E4614461E
:103E20001F46DDF8208004EB0800B0420FDD301B98
:103E30001FFA80F928194A463946FCF7A7F9A8EB7A
:103E4000090207EB09012846FCF7A0F904E028194C
:103E500042463946FCF79AF9BDE8F0872DE9F05F54
:103E600004460D46164699462846FCF70DFB0746C4
:103E70000022174BFCF790FA8246FCF718FB04EB84
:103E8000C401144A42F821003046FCF7FDFA074607
:103E900000220F4BFCF780FA8246FCF708FB04EB8C
:103EA000C4010C4A02EB810148604846FCF7ECFA79
:103EB00007460022064BFCF76FFA8246FCF7F7FA3A
:103EC00004EBC401034A02EB81018860BDE8F09F66
:103ED00000408F407402002000000000000000003D
:103EE00001020304060708090000000001020304A0
:103EF000103F000800000020580000004831000872
:103F0000683F000858000020C00F0000583100082A
:103F100000000000000000000000000000000000A1
:103F20000000000000000000000000000000000091
:103F30000000000000000000001001401000000020
:103F400088060020001001402000000088060020A4
:103F50000000000001000000100000000000000050
:083F60000024F4000000000041
:0400000508000131BD
:00000001FF
