:020000040800F2
:10000000C80A00204901000823210008CB1E00086F
:10001000212100087D0800081D27000800000000BD
:100020000000000000000000000000000D24000897
:10003000B50800080000000025210008452400083C
:100040006301000863010008630100086301000800
:1000500063010008630100086301000863010008F0
:1000600063010008630100086301000863010008E0
:1000700063010008630100086301000863010008D0
:1000800063010008630100086301000863010008C0
:1000900011270008630100086301000863010008DC
:1000A00063010008630100086301000863010008A0
:1000B0006301000863010008630100086301000890
:1000C0006301000863010008630100086301000880
:1000D00063010008F92600080527000863010008ED
:1000E0006301000863010008630100086301000860
:1000F0006301000863010008630100086301000850
:10010000630100086301000863010008630100083F
:10011000630100086301000863010008630100082F
:10012000630100086301000863010008630100081F
:10013000DFF810D000F0CCFA004800472930000862
:10014000AFF30080C80A00200648804706480047F1
:10015000FEE7FEE7FEE7FEE7FEE7FEE7FEE7FEE777
:10016000FEE7FEE7A724000831010008202A04DB8F
:10017000203A21FA02F00021704721FA02F3D04020
:10018000C2F120029140084319467047D2B201E003
:1001900000F8012B491EFBD270470022F6E710B58C
:1001A00013460A4604461946FFF7F0FF204610BDE5
:1001B00080EA010210B502F00043400022D04A005C
:1001C0001FD0010E01EB1261C0F35600C2F35602BC
:1001D00040F4000042F40002A0FB022000047F393A
:1001E000140400D0401C50EA124001D44000491EC3
:1001F000C2B20C0604EBD010401C4008802A02D08A
:1002000003E0002010BD20F00100002900DA0020EA
:10021000184310BD420005D0C0F3C752524291426C
:1002200001DC0020704700EBC1507047C10F80EA2D
:10023000E0700844CA079623002100F063B800F07C
:10024000004230F000400AD0C10D01F56071C0F3EA
:10025000160042EA0151C2084007114370470020CE
:100260000146704730B50B4601460020202201248C
:1002700009E021FA02F59D4205D303FA02F5491B74
:1002800004FA02F52844151EA2F10102F1DC30BD8A
:100290002DE9F05F0546002092469B4688460646BB
:1002A000814640241BE02846414647462246FFF748
:1002B0005DFF53465A46C01A914110D31146184665
:1002C000224600F017FA2D1A67EB01084F46224626
:1002D0000120002100F00EFA17EB00094E41201E0C
:1002E000A4F10104DFDC484631462A464346BDE816
:1002F000F09F0029A8BF7047401C490008BF20F0AC
:100300000100704710B4B0FA80FC00FA0CF050EA1B
:10031000010404BF10BC704749B1CCF1200421FA9C
:1003200004F411FA0CF118BF012121430843A3EB97
:100330000C01CB1D4FEA00614FEA102042BF0020A4
:1003400010BC704700EBC35010440029A4BF10BC80
:100350007047401C490008BF20F0010010BC7047E6
:100360002DE9FE4F804681EA0300C00F0C46009045
:1003700021F0004123F00045B8EB0200A94105D26D
:100380004046214690461C460B46024623F000405C
:10039000104347D0270DC7F30A00C3F30A51029058
:1003A000401A019040286BDAC3F3130040F4801B1D
:1003B0000098924620B10023D2EB030A63EB0B0BAB
:1003C00001985946C0F14002504600F093F90646A4
:1003D0000D4650465946019A00F09BF910EB080073
:1003E0006141002487EA115284EAE7731A4340D03E
:1003F000009A62B3019A012A4FEA075215DC001BEA
:1004000061EB02014FF0004202EA0752CDE90042DF
:10041000001C41F5801132462B4600F09BF903B0D9
:10042000BDE8F08F40462146F9E7001B61EB020171
:10043000001C41F5801300185B412018A2F500173D
:1004400047EB030140EAD570B6196D4111E06D0824
:100450004FEA360645EAC0754FEA0752001B61EBCA
:100460000201001C41F5801149084FEA30000019D3
:10047000514132462B4603B0BDE8F04F00F05BB966
:100480000098012240000023D0EB020263EBE073EE
:10049000009821464FEAE074B8EB000061EB0401DC
:1004A000E9E783F000435BE781F0004158E72DE97D
:1004B000FE4F81EA030404F0004421F0004100945F
:1004C0004FF0000B23F0004350EA01045ED052EAE3
:1004D00003045BD0C3F30A54C1F30A552C44A4F2BD
:1004E000F3340194A0FB0254C1F3130141F48011D1
:1004F000C3F3130343F4801301FB024400FB034ED8
:10050000840A970A44EA815447EA8357A4FB0768A0
:1005100002958D0A05FB07854FEA932C04FB0C54CA
:100520002705029D4FEA065847EA1637B5EB08053E
:100530006EEB070C870E920E47EA811742EA831290
:10054000A7FB0201B6EB0B0164EB00042B0D43EAA1
:100550000C335E1844EB1C50DA465146E7FB0201AF
:10056000C5F313044FEA0B3343EA14534FEA043242
:10057000019C43EA0603A4F10C040294009CCDE91B
:1005800000B400F0E7F803B0BDE8F08F00200146AA
:10059000F9E72DE9F04D81EA030404F0004B21F066
:1005A000004514464FF0000A23F0004150EA0502CE
:1005B00020D054EA01021DD0C5F30A570246C5F304
:1005C0001303C1F31300C1F30A5640F4801543F43A
:1005D0008013A7EB0608101BD64608F2FD3873EB14
:1005E000050002D308F1010801E092185B41B8F15F
:1005F000000F03DA00200146BDE8F08D00204FF423
:100600008011064684460EE0171B73EB050705D3E1
:10061000121B63EB050306434CEA010C49084FEA41
:10062000300092185B4150EA0107EDD152EA030015
:1006300012D082EA040083EA0501084305D0101BAA
:10064000AB4106D20122002306E000224FF0004316
:1006500002E06FF0010253101AEB06004CEB085158
:1006600010EB0A0041EB0B01BDE8F04D00F063B860
:10067000C1F30A52C1F3130140F2FF3341F4801178
:100680009A4202DA00200146704740F233439A4210
:10069000A2F2334202DC5242FFF768BD00F02AB8F2
:1006A00030B5041E71F1000404DB4FF000444042F9
:1006B00064EB0101141E73F1000405DB1C464FF0CE
:1006C0000043524263EB0403994208BF904230BD9D
:1006D000064C074D06E0E06840F0010394E807008F
:1006E00098471034AC42F6D3FFF726FD24310008BA
:1006F00044310008202A04DB203A00FA02F10020ED
:1007000070479140C2F1200320FA03F3194390404F
:100710007047202A06DBCB17203A41FA02F043EA61
:10072000E07306E041FA02F3D040C2F120029140AA
:1007300008431946704710B5141E73F1000408DA17
:10074000401C41F1000192185B411A4301D120F095
:10075000010010BD2DE9F04D92469B4611B1B1FA52
:1007600081F202E0B0FA80F220329046FFF7C2FF39
:1007700004460F4640EA0A0041EA0B0153465A4636
:10078000084313D0114653EA010019D0C8F14002C2
:100790005046FFF7EBFC05460E465046594642468A
:1007A000FFF7A8FF084305D0012004E020463946A2
:1007B000BDE8F08D0020054346EAE0762C43374340
:1007C0000A986305E40AA0EB08000022FD0A44EA47
:1007D00047540A3002D500200146E9E70105101907
:1007E0006941DDE9084500196941BDE8F04DA2E71E
:1007F0002DE9F0411C4D0024274605F164062046F2
:1008000001F092FC04EB840205EB4201002006EBB0
:10081000420200BF21F8107022F81070401CC0B2D4
:100820000428F7D3641CE4B2042CE8D30024204647
:1008300001F07AFC04EB840205EB4201002006EB98
:10084000420200BF31F8103022F81030401CC0B214
:100850000428F7D3641CE4B2042CE8D3BDE8F041CB
:1008600002A001F05DBF00002C0100200A5A657251
:100870006F207265736574210D0A0000FEE70000A9
:1008800030B5054687B00C46642000F011FB00200F
:1008900003900290082004900095044B224669467C
:1008A000034800F00AF807B030BD00000000002047
:1008B00054000020704772B6FEE7F0B590F8205063
:1008C0000468A468012D05D0022D03D0416A41F4CB
:1008D000802157E014F0406F01D1E5004FD5C4F3FB
:1008E00001640125A5401D608D684FF4C0739DB162
:1008F000CE6835434E6845EAC605066803EB041723
:10090000F5514FF4C275076805EB04150E697E5169
:10091000097D012905D009E00E88CD6845EA4655D4
:10092000EBE701684E5946F480764E511179D5793E
:10093000567941EA056195792D0445EA0625294352
:100940004FF4C676056806EB0416A9511178D578E0
:1009500041EA0561957852782D0445EA0222114357
:100960004FF4C475026805EB04155151006803EBA0
:100970000411425842F0010242500020F0BD416A89
:1009800041F4001141620120F0BD70472DE9F05F94
:100990000546006800244669D0F804908768D0F8BE
:1009A0000CB0D0F810A0D0F81880F10748D0F907A3
:1009B00014D001218160B80703D5284600F0B6F9AC
:1009C0000CE0780702D54FF4006407E0380702D541
:1009D0004FF4805402E0284600F0A7F9F80516D538
:1009E00029684FF480708860B80503D5284600F068
:1009F0009FF90CE0780502D544F4005407E038056F
:100A000002D544F4804402E0284600F090F9F8034F
:100A100016D529684FF480308860B80303D528467E
:100A200000F088F90CE0780302D544F4004407E0B4
:100A3000380302D544F4803402E0284600F079F906
:100A4000300707D55FEACB6004D52968102044F44D
:100A50000074C86070074FF0080707D55FEA0B7095
:100A600004D52868C760284600F05AF9B00706D5B3
:100A70002868C068800702D0284600F052F9700646
:100A800007D55FEACA6004D52968102044F4806461
:100A90000861B00607D55FEA0A7004D528680761C7
:100AA000284600F03FF9F00606D52868006980075F
:100AB00002D0284600F037F9B00308D55FEAC960D4
:100AC00005D5296810204860284600F02DF9F0036C
:100AD00007D55FEA097004D528684760284600F00A
:100AE0002AF9300446D55FEA497040D5F00504D5AF
:100AF0005FEAC87001D044F00104B00504D55FEA94
:100B0000887001D544F00204700504D55FEA48708E
:100B100001D544F00404300529D518F0700F26D013
:100B200008F07000402815D006DC102809D02028D5
:100B30000AD0302816D10AE050280ED0602811D1F2
:100B40000EE044F008040DE044F010040AE044F024
:100B5000200407E044F0400404E044F0800401E095
:100B600044F480742868816921F0700181612968EA
:100B700004204860002C05D0686A2043686228463B
:100B8000FFF703FFBDE8F09F70B5040003D094F8B1
:100B9000200010B104E0012070BD204600F082F872
:100BA0002068016841F00101016000F09DFA0546EE
:100BB000052604E000F098FA401B0A2811D82068A6
:100BC0004068C007F6D02068016821F0020101608A
:100BD00000F08AFA05460BE000F086FA401B0A286E
:100BE00006D9606A40F40030606284F82060D2E781
:100BF000206840688007EFD4207E012820680168C3
:100C00003DD021F080010160607E012820680168EC
:100C100038D021F040010160A07E012820680168E1
:100C200033D021F020010160E07E012820680168B6
:100C30002ED041F010010160207F0128206801685A
:100C400029D021F008010160607F01282068016837
:100C500024D021F004010160D4E902010843D4E961
:100C60000412114308436168491E08432168C861A2
:100C700000206062012084F82000002070BD41F057
:100C80008001C0E741F04001C5E741F02001CAE71B
:100C900021F01001CFE741F00801D4E741F0040151
:100CA000D9E7000010B586B00021009101910291B2
:100CB00003910068174988422AD11748C16941F059
:100CC0000071C161C16901F000710491816941F055
:100CD000040181618069114C00F0040004904FF41C
:100CE000006000906946204600F0F4F8A0140090DF
:100CF00002200190032003906946204600F0EAF8A4
:100D000000221146142000F05BFA142000F04AFA89
:100D100006B010BD00640040001002400008014011
:100D2000704770477047704770477047704770470B
:100D3000704770477047704710B590F82110002237
:100D4000022905D00421816380F82020012010BDF4
:100D500001680B6823F00E030B6001680B6823F039
:100D600001030B6090F84030C46B012101FA03F3DA
:100D7000636080F8211080F82020104610BD00002C
:100D80002DE9F05F90F821100024022903D00421FE
:100D90008163012485E001680A6822F00E020A607E
:100DA00001680A6822F001020A603F4E3E4FB21508
:100DB000DFF8F4C0DFF8F090DFF8ECA0DFF8E8B07F
:100DC000DFF8E4E00168783F13011502ACF1640C30
:100DD000A9F15009AAF13C0AABF1280BAEF1140EAF
:100DE0004FF48018B14227D9B9420ED0614512D0D4
:100DF00049451DD0514518D0594518D0714501D1EC
:100E0000424615E0294EB14201D1012210E0274EA1
:100E10001436B14201D110220AE0244E2836B142E4
:100E200006D0224A3C32914201D11A4600E02A46BD
:100E30001E49091F0A602BE0B94213D0614517D043
:100E4000494522D051451DD059451DD0714501D18C
:100E500042461AE0B14202D14FF0807215E0134EC3
:100E6000B14201D1012210E0104E1436B14201D13D
:100E700010220AE00D4E2836B14206D00B4A3C3211
:100E8000914201D11A4600E02A46074980394A605A
:100E9000012180F82110002180F82010416B01B160
:100EA00088472046BDE8F09F8000024008040240C9
:100EB00070B5044600F018F90546601C02D00448DD
:100EC0000078044400F010F9401BA042FAD370BD32
:100ED000400000202DE9F84FDFF8C8910024A9F167
:100EE000040B23460F2709F1040AABF1040ED1E0ED
:100EF0000125A54006EA0502AA4276D1DFF8A8C17D
:100F00004E68A6EB0C0866452BD00DDC032E34D0C2
:100F100005DC36B3012E19D0022E2FD11BE0112E85
:100F200016D0122E2AD119E0B8F5881F19D006DC88
:100F3000B8F5803F15D0B8F5801F1FD111E0B8F586
:100F4000001F0ED0B8F5041F18D10AE0CB6815E0D9
:100F5000CB681B1D12E0CB6808330FE0CB680C3365
:100F60000CE08B682BB1012B4FF0080303D04561D7
:100F700004E0042302E0056100E00023FF2A01D819
:100F8000064601E000F104064FEA840501D9A5F107
:100F90002005D6F8008007FA05FC28EA0C0803FAB9
:100FA00005F548EA0508C6F800804D68ED0070D5E3
:100FB0003E4DAE6946F00106AE61AD6924F0030610
:100FC00005F0010500953A4D06EB050CDCF80850DC
:100FD000A607360F07FA06F825EA0805DFF8D480D9
:100FE000404503D14FF0000825E052E0DFF8C8800B
:100FF000404502D14FF001081DE0DFF8C0804045B8
:1010000002D14FF0020816E0DFF8B480404502D16B
:101010004FF003080FE0DFF8AC80404502D14FF0FD
:10102000040808E0DFF8A080404502D14FF0050831
:1010300001E04FF0060808FA06F848EA0508CCF87F
:1010400008804D68D9F80060ED024D4601D5164381
:1010500000E096432E604D68DAF80060AD02554618
:1010600001D5164300E096432E604D68DBF8006022
:10107000AD035D4601D5164300E096432E604D68F2
:10108000DEF80060ED03754601D5164300E0964397
:101090002E60641C0A681646E2407FF429AFBDE862
:1010A000F88F0000080401400000111000100240F9
:1010B0000000014000080140000C01400010014008
:1010C0000014014000180140001C0140C26821EAE0
:1010D00002030A4043EA0241016170470AB101611B
:1010E00070470904FBE70000014880687047000072
:1010F00040000020024881680278114481607047F6
:1011000040000020074810B5016841F0100101605F
:10111000032000F075F80F2000F006F800F024F826
:10112000002010BD0020024070B50D4D04464FF464
:101130007A712878B1FBF0F00A490968B1FBF0F048
:1011400000F089FC48B9102C07D200222146501E1D
:1011500000F036F800206C6070BD012070BD00000A
:10116000400000204C0000200C4808B5816941F087
:1011700001018161816901F001010091C16941F0C2
:101180008051C161C06900F08050009004484168FE
:1011900021F0E06141F00071416008BD00100240A3
:1011A00000000140002809DB00F01F0201219140EE
:1011B0004009800000F1E020C0F8001170470000F5
:1011C000F0B40E4B1B680C46C3F30223C3F10705B2
:1011D000042D00D90425191D072901D2002300E0A0
:1011E000DB1E012606FA05F1491E214099409E406A
:1011F000761E16403143F0BC01F0A2BA0CED00E0BF
:10120000064900F0070208684FF6FF03184040EA5D
:101210000220034A10430860704700000CED00E014
:101220000000FA052DE9F0470F46050061D0434E56
:10123000306800F00700B84209D2306820F007009B
:1012400038433060306800F00700B84251D1286858
:101250003B4C810712D5400703D5606840F4E0603D
:1012600060602878000703D5606840F460506060D3
:101270006068A96820F0F000084360602878C00723
:1012800028D06868012810D02168022810D089076A
:1012900000292EDA616821F0030101436160FFF744
:1012A00023FF804641F288390DE021688903EFE78A
:1012B0008901EDE7FFF718FFA0EB0801494502D9C6
:1012C0000320BDE8F0876068696800F00C00B0EBAF
:1012D000810FEFD1306800F00700B8420BD93068B9
:1012E00020F0070038433060306800F00700B84253
:1012F00001D00120E5E72878400705D56068E96856
:1013000020F4E060084360602878000706D5606834
:10131000296920F4605040EAC100606000F038F8AC
:101320006168084AC1F30311515CC840064908606E
:1013300006480068FFF7F8FE0020C2E700200240E0
:1013400000100240C23000084C0000204400002081
:101350000448054900684968044AC1F30221515C08
:10136000C84070474C00002000100240D2300008F6
:101370000448054900684968044AC1F3C221515C28
:10138000C84070474C00002000100240D2300008D6
:101390000E4A51680E4801F00C03042B11D0082BA3
:1013A0000FD10C48C1F38343C903C05C0AD551680F
:1013B000084AC1F34041921E515C054A5043B0FBBC
:1013C000F1F07047044948437047000000100240A4
:1013D00000127A00B230000800093D002DE9F84FF4
:1013E000040070D02078C04DC00749D06868C0F3B1
:1013F0008100012807D06868C0F38100022809D164
:101400006868C00306D52868800339D5606800285D
:10141000E7D035E06068B0F5803F0BD010B1B0F593
:10142000A02F11D0286820F480302860286820F48C
:10143000802002E0286840F480302860606890B125
:10144000FFF752FE06460AE0286840F48020286034
:10145000F0E700BFFFF748FE801B642873D82868B8
:101460008003F7D50CE0FFF73FFE064605E000BF1E
:10147000FFF73AFE801B6428F0D828688003F7D471
:1014800020789A4E80074FF001094FF0000839D5B7
:10149000686810F00C0F07D06868C0F3810002285C
:1014A00009D16868C00306D42868800714D520696C
:1014B000012808D110E02069B0B1C6F80090FFF70C
:1014C00013FE074605E00AE1FFF70EFEC01B0228E7
:1014D000C4D828688007F7D52868616920F0F8002B
:1014E00040EAC10028600DE0C6F80080FFF7FCFD6F
:1014F000074604E0FFF7F8FDC01B022823D8286840
:101500008007F7D4207800072CD57948A169D9B194
:10151000C0F80090FFF7E8FD074604E0FFF7E4FDA0
:10152000C01B02280FD8686A8007F7D571484FF4AE
:10153000FA510068B0FBF1F0009000BF0098411E26
:101540000091FAD20EE080E0C0F80080FFF7CCFDF9
:10155000074604E0FFF7C8FDC01B022875D8686A7B
:101560008007F7D42078400760D5E8690027C000DD
:1015700008D4E86940F08050E861E869012700F08C
:10158000805000905C480168C90513D40168834607
:1015900041F480710160FFF7A7FD824606E000BFBD
:1015A000FFF7A2FDA0EB0A0064284ED8DBF800008C
:1015B000C005F5D5E06801280AD008B1052813D088
:1015C000286A20F001002862286A20F0040002E066
:1015D000286A40F001002862E06841F2883B98B137
:1015E000FFF782FD82460BE0286A40F00400286283
:1015F000EEE700BFFFF778FDA0EB0A0159455AD886
:10160000286A8007F6D50CE0FFF76EFD824605E0FC
:10161000FFF76AFDA0EB0A0159454CD8286A8007FC
:10162000F6D41FB1E86920F08050E861E06988B322
:101630006968C1F38101022944D00228C6F860809C
:1016400004D0FFF751FD044638E034E0FFF74CFDCD
:10165000074604E0FFF748FDC01B02282BD8286886
:101660008001F7D4206AB0F5803F05D16868A16891
:1016700020F4003008436860D4E908010843696831
:1016800021F4741108436860C6F86090FFF72CFDE0
:10169000044606E025E000BFFFF726FD001B0228F8
:1016A00009D828688001F7D51BE000BFFFF71CFDB3
:1016B000001B022802D90320BDE8F88F28688001AA
:1016C000F4D40EE00128F7D06868226A00F4803173
:1016D000914204D1616A00F47010884201D0012067
:1016E000EAE70020E8E70000001002400000424264
:1016F000800442424C0000200070004070B504009D
:1017000009D0606A002540B125616561A56294F841
:10171000510040B10CE0012070BD6068B0F5827FDF
:10172000F4D0E561F2E784F85050204600F040F82C
:10173000022084F851002068016821F04001016016
:10174000A088218900F4827001F404410843A18932
:1017500001F400610843217C01F002010843217D6E
:1017600001F001010843218B01F400710843217F3E
:1017700001F03801084394F8201001F0800108437B
:10178000218D01F40051084321680860A0690421FB
:1017900001EA1040216848602068C16921F40061B5
:1017A000C1616565012084F85100002070BD000012
:1017B00030B585B000240094019402940394254D23
:1017C0000368254802210322AB421AD1836943F4FE
:1017D00080538361836903F480530493836943F0E6
:1017E0000403836180691D4D00F004000490A02073
:1017F000CDE90001039269462846FFF76BFB4020C4
:101800001EE0174DAB4222D1C36943F48043C3614C
:10181000C36903F480430493836943F0080383613D
:101820008069104D00F0080004904FF42040CDE98D
:101830000001039269462846FFF74CFB4FF48040B5
:10184000CDE90004694628460294FFF743FB05B042
:1018500030BD00000030014000100240000801408F
:1018600000380040000C01402DE9FF4F81B00446D4
:1018700090F8500000260E9F1D4693464FF0010938
:1018800001280FD04FF0010A84F850A0FFF72CFC7C
:10189000804694F85100616801280DD0B1F5827F2F
:1018A00008D103E0022005B0BDE8F08FA16809B9B6
:1018B000042801D00226C9E00298002865D0BBF1B7
:1018C000000FFBD0002DF9D094F85100042802D06D
:1018D000052084F8510000206065C4F838B0E58721
:1018E000A58702992163E586A58620646064206847
:1018F0000168490603D4016841F040010160E068D5
:10190000B0F5006F606803D0F0B3012D47D081E0DF
:1019100008B1012D3CD1206B21680088C860206B84
:10192000801C2063E08E401EE08631E020688168E4
:1019300089070FD5E18E69B1B9F1010F0AD1216B89
:101940000988C160206B801C2063E08E401EE08609
:101950004FF0000920688168C9070CD0E18F51B1B0
:10196000C068A16B0880A06B801CA063E08F401E44
:10197000E0874FF00109FFF7B7FBA0EB0800B84282
:1019800006D3781C04D001E009E05BE003265BE0AD
:10199000E08E0028CAD1E08F0028C7D140E0206B3C
:1019A000216800780873206B401C2063E08E401E85
:1019B000E0862FE02068816889070FD5E18E69B144
:1019C000B9F1010F0AD1216B09780173206B401C1A
:1019D0002063E08E401EE0864FF000092068816899
:1019E000C9070CD0E18F51B1C068A16B0870A06B22
:1019F000401CA063E08F401EE0874FF00109FFF715
:101A000073FBA0EB0800B84202D3781C02D0BAE7FF
:101A1000002FB8D0E08E0028CCD1E08F0028C9D1AB
:101A200042463946204600F085FC18B101262020A8
:101A300060650BE0A06818B92068C16880680090F4
:101A4000606D08B1012601E084F851A0002084F8FF
:101A50005000304627E710B5401EB0F1807F01D31B
:101A6000012010BD4FF0E02460610F21601700F0ED
:101A700067FE0020A06107202061002010BD704794
:101A800070470000F8B5016804460868CA684B69E9
:101A900010F00F0F4FF0000559D003F0010602F4CB
:101AA0009077374365D0C10705D0D10503D5616C68
:101AB00041F001016164410705D5D90703D0616C8C
:101AC00041F002016164810705D5D90703D0616C3B
:101AD00041F004016164010707D502F020013143A0
:101AE00003D0616C41F008016164616C00293AD057
:101AF000800604D5900602D5204600F004FD20683B
:101B00004069616CC0F38010090700D460B32046BF
:101B100000F0D2FC20684069400621D520681430CE
:101B200050E8001F21F0400140E80012002AF5D1E2
:101B3000E06BA8B16D494163E06BFFF721F9002824
:101B400011D0E06B416B01B0BDE8F040084783065F
:101B50000FD593060DD52046BDE8F84000F0D3BC64
:101B60002046FFF78DFFF8BD2046FFF789FF65642B
:101B7000F8BD266B2023012E7CD1C6067AD5D60669
:101B800078D508684868009048694FF0020640061A
:101B900040D5E16B086840680004000CE8D0A28DD5
:101BA0008242E5D9E085886920282DD020680C3054
:101BB00050E8001F21F4807140E80012002AF5D19E
:101BC0002068143050E8001F21F0010140E80012A5
:101BD000002AF5D12068143050E8001F21F04001A0
:101BE00040E80012002AF5D184F8423025632068CD
:101BF0000C3050E8001F21F0100140E80012002ACC
:101C0000F5D1E06BFFF798F86663A08DE18D401A7F
:101C100081B22AE0A08DE18D401A81B2E08D0028CA
:101C2000A6D00029A4D022680C3252E8000F20F47C
:101C3000907042E80007002FF5D12068143050E87A
:101C4000002F22F0010240E80027002FF5D184F890
:101C50004230256320680C3050E8002F22F010023B
:101C600040E80023002BF5D166632046FFF707FF0D
:101C7000F8BDFFE705062BD5150629D594F84100D8
:101C80002128F5D1A068B0F5805F01D12069B0B1FD
:101C9000206A411C2162216800784860E08C401E67
:101CA0000004000CE084E3D12068C16821F08001C9
:101CB000C1602068C16841F04001C160D8E7206A76
:101CC0000088C0F308004860206A801C2062E5E7B5
:101CD0004006CDD55006CBD5CA68204622F040023A
:101CE000CA6084F8413000F0EFF8C1E7A924000889
:101CF00070B5040004D094F84100002510B106E04E
:101D0000012070BD84F84050204600F023F82420C4
:101D100084F841002068C16821F40051C160204668
:101D200000F052FC2068016921F4904101612068B3
:101D3000416921F02A0141612068C16841F40051E4
:101D4000C1606564202084F8410084F84200656326
:101D5000002070BD70B586B00024009401940294F8
:101D600003942E4E03682E49022003222D4DB342C8
:101D700026D18B6943F480438B618B6903F48043E4
:101D800004938B6943F004038B618969039201F02A
:101D9000040104910102CDE9001069462846FFF7CD
:101DA00099F82815CDE90004694628460294FFF702
:101DB00091F8002211462520FFF702FA252028E09D
:101DC000194EB34227D1CB6943F40033CB61CB69C1
:101DD00003F4003304938B6943F004038B61896936
:101DE000039201F0040104910421CDE90010694639
:101DF0002846FFF76FF80820CDE900046946284619
:101E00000294FFF767F8002211462620FFF7D8F961
:101E10002620FFF7C7F906B070BD0000003801406A
:101E200000100240000801400044004070472DE9C6
:101E3000F843044690F841001F4616460D462028F8
:101E400002D00220BDE8F8837DB176B10020606445
:101E5000212084F84100FFF747F9A6848046E684F4
:101E6000A068B0F5805F02D003E00120EAE72069B6
:101E700010B12E4600250EE000260CE08021204601
:101E800000F0FEFBA0B9AEB116F8010B2168486066
:101E9000E08C401EE084E08C43464FF00002009747
:101EA0000028EBD14FF04001204600F0E9FB30B1B3
:101EB0000320C7E735F8020BC0F30800E6E720204F
:101EC00084F841000020BDE77047FEE70E4810B5DA
:101ED0000C4901600C21416000214FF440328160C7
:101EE000C0E903124161017641768176C1760177BE
:101EF0004177FEF749FE002803D0BDE81040FEF709
:101F0000DABC10BD00640040540000202DE9F04F01
:101F100085B000243B4800940194029403948169A5
:101F200041F004018161816901F00401049181693A
:101F300041F010018161816901F010010491816912
:101F400041F008018161816901F008010491816912
:101F500041F0200181618069DFF8AC9000F0200041
:101F60000490002202214846FFF7B8F8DFF89CA051
:101F70004FF40C77002239465046FFF7AFF8DFF8F0
:101F800090B0002207215846FFF7A8F84FF4F85800
:101F9000002241461F48FFF7A1F8012211024846DE
:101FA000FFF79CF80125CDE90054694648460294A4
:101FB000FEF790FF4FF481700226CDE90005CDE9D0
:101FC000024669464846FEF785FF00970396CDE92D
:101FD000015469465046FEF77DFF0720CDE9000514
:101FE000CDE9024669465846FEF774FFCDF80080F9
:101FF0000396CDE9015469460648FEF76BFF05B02C
:10200000BDE8F08F001002400008014000100140C0
:10201000000C014000140140114810B50F49016047
:102020004FF48271416000214FF40062C0E9021256
:102030000122C0E90412520282613822C0E907215C
:10204000416281620A21C162FFF758FB002803D078
:10205000BDE81040FEF72FBC10BD0000003001406D
:102060007C000020114810B50F4901604FF48271C7
:10207000416000214FF40062C0E902120122C0E970
:102080000412520282613822C0E907214162816252
:102090000A21C162FFF732FB002803D0BDE81040DF
:1020A000FEF709BC10BD000000380040D40000203D
:1020B0000C4810B50A4901604FF4E131416000213C
:1020C00081600C22C160C0E904128161C161FFF727
:1020D0000FFE002803D0BDE81040FEF7ECBB10BD9A
:1020E00000380140340200200C4810B50A49016054
:1020F0004FF4E1314160002181600C22C160C0E9F0
:1021000004128161C161FFF7F3FD002803D0BDE82F
:102110001040FEF7D0BB10BD004400407C02002000
:10212000FEE7FEE7704700002DE9F04105468CB060
:10213000002001900290039004902FA0324FD0E92C
:102140000010CDE907102EA005EB4506D0E90010E0
:10215000CDE9091007EB860457F82600A188002274
:10216000FEF7BCFF4FF0FF38CDF80080042305AA2E
:1021700007A9A068FFF778FBA18857F8260001227D
:10218000FEF7ACFFA18857F826000022FEF7A6FF55
:10219000CDF80080042305AA09A9A068FFF764FB15
:1021A000A18857F826000122FEF798FF002105AA12
:1021B0000DF10400C1F1030450F8213032F814404D
:1021C000C4F30D04234440F82130491CC9B204294A
:1021D000F0D30E4B05EB8502002103EB420200BF5A
:1021E00030F8213022F81130491CC9B20429F7D344
:1021F0000CB0BDE8F0810000FFFFFFFFFFFFFFFF15
:1022000000C000C000C000C0100000202C01002051
:102210002DE9F04F4348A9B04349B0F9000000252B
:10222000C0F1010000B2279001EB40100790284652
:10223000FFF77AFF6420FEF73BFE3B4805EB850184
:10224000C838002400EB4109643000EB41080798CE
:102250000DF1200A00EBC5070DA80DF1740B00EB82
:10226000051600BF39F8141038F81400081A01B226
:1022700050462AF8141011F5005F03DA01F5804189
:1022800020F8141030F91410B1F5005F03DDA1F54A
:10229000804120F8141030F814202BF814203AF95B
:1022A000140027F81400FDF7C1FF6FF00C01FDF7D3
:1022B000B1FF1E49FDF77CFF46F82400641CE4B220
:1022C000042CCFD3F068FDF7BAFF82468B46B06886
:1022D000FDF7B5FF804689467068FDF7B0FF0446FC
:1022E0000F463068FDF7ABFF8DE8900F02460B46B6
:1022F000691C0F4800F014FA0095BDF82630BDF8AF
:102300002420BDF82210BDF8200000F081F8054916
:102310006D1C2798EDB20880042D88D329B0BDE844
:10232000F08F00000C000020F40100200000344376
:10233000DC30000838B50B460092044600228021AC
:1023400000F008F8002804D0606D40F020006065BF
:10235000032038BD2DE9F8431E46914688460446C1
:10236000089DFEF7C1FE401B351AFEF7BDFE07466D
:1023700025480068C0F3CB30684338E0701C37D084
:10238000FEF7B2FEC01BA84203D215B1009860B39D
:102390002CE02068416821F0E00141606068B0F500
:1023A000827F0BD1A068B0F5004F02D0B0F5806FEE
:1023B00004D12068016821F040010160A06AB0F5F5
:1023C000005F09D12068016821F400510160206894
:1023D000016841F400510160012084F8510000209F
:1023E00084F850000320BDE8F8830025401E0090CB
:1023F0002068816838EA010004D000214945BDD138
:102400000020F0E70121F9E74C00002070470000B0
:10241000F0B4060A049C04F58174A5B2084C267039
:102420006070080AA070E170100A20716271180AC9
:10243000A071E37121462846F0BCFEF721BA0000E6
:1024400004000020FEF756BE30B58FB02821684644
:10245000FDF7A3FE14210AA8FDF79FFE0121080441
:10246000CDE900100024029402250491CDE9075023
:102470004FF4E01009906846FEF7B0FF08B172B65D
:10248000FEE70F20CDE90A054FF48060CDE90C404E
:1024900002210AA80E94FEF7C5FE002801D072B6EC
:1024A000FEE70FB030BD704710B5406A0021C1850E
:1024B000C184FFF7E5FA10BD01680C3151E8002F27
:1024C00022F4907241E80023002BF5D10168143109
:1024D00051E8002F22F0010241E80023002BF5D142
:1024E000016B012909D101680C3151E8002F22F05C
:1024F000100241E80023002BF5D1202180F8421082
:1025000000210163704708B590F84210222901D0DC
:10251000022008BD82684FF480539A4201D10169BC
:1025200021B1816A9A421BD04AB10AE00268816AED
:102530005268C2F308020A80816A891C08E00269B5
:1025400072B10268526802F07F020A70816A491C07
:102550008162C18D491E0904090CC18503D01BE0AD
:1025600002685268F1E70168CA6822F02002CA6076
:102570000168CA6822F48072CA6001684A6922F060
:1025800001024A61202180F8421000214163026B60
:10259000012A03D0FFF74AFC002008BD016301684F
:1025A0000C3151E8002F22F0100241E80023002BEB
:1025B000F5D101680A68D20602D50A684968009117
:1025C000818DFFF75CFAE7E770B5044600680169A2
:1025D000E26821F44051114301612169A068084378
:1025E000616908432168CA6841F20C639A43024357
:1025F000CA6020684169A26921F4407111434161B8
:102600001E492068884202D1FEF7B2FE01E0FEF7C3
:102610009FFE00EBC00101EB0012606864218000A6
:10262000B2FBF0F3B3FBF1F36FF018067343B2FBA8
:10263000F0F5B2FBF0F605EB8305322303EB05154D
:10264000B5FBF1F5B6FBF1F605F0F00505EB061567
:10265000B2FBF0F6B2FBF0F0B0FBF1F06FF0180255
:10266000504306EB800003EB0010B0FBF1F0216853
:1026700000F00F002844886070BD00000038014061
:102680002DE9F041984617460E460446069D27E080
:10269000681C25D02DB1FEF727FDA0EB0800A8424D
:1026A0001ED920680C3050E8001F21F4D07140E89A
:1026B0000012002AF5D12068143050E8001F21F0E4
:1026C000010140E80012002AF5D1202084F84100E1
:1026D00084F84200002084F840000320BDE8F08127
:1026E0002068006836EA000004D00020B842CFD04D
:1026F0000020F3E70120F9E70148FFF7C3B9000024
:10270000340200200148FFF7BDB900007C02002020
:102710000148FEF73BB9000054000020FEE700002E
:102720000FB4054B10B503A9044A029800F0EAF86B
:1027300010BC5DF814FB00000D30000850000020B4
:102740000907090E002804DB00F1E02080F80014DE
:10275000704700F00F0000F1E02080F8141D704772
:1027600002E008C8121F08C1002AFAD1704770475A
:10277000002001E001C1121F002AFBD170470000B8
:102780002DE9FF5F82B00021DDE90430020DDDF8A4
:1027900040B0034318D044F61050A2F2FF32424337
:1027A0001514119801281FD0A5EB0B00401C5FEAFF
:1027B000000A4FF000064E4FDFF83891B046504601
:1027C00015D5CAF1000413E0119801244AA3012889
:1027D00001D16FEA0B010298119AC0E90031C0E9FA
:1027E000024206B0BDE8F09FCBF10000DFE70446EF
:1027F0000021404A491842EB0450CDE9001012E094
:10280000E00707D032463B4640464946FDF74FFEBB
:102810008046894632463B4610461946FDF747FE3C
:1028200006460F466410002CEAD1DDE90401DDE91B
:102830000023BAF1000F06DAFDF739FE42464B4697
:10284000FDF735FE05E0FDF7A4FE42464B46FDF7D9
:10285000A0FE04460E460022284BFDF721FF03D8B8
:102860004FF0FF30014607E00022254B204631465D
:10287000FDF776FDFDF7FCFE102409E0002C0ADBD5
:102880000A220023FDF704FD039B30321A55641E13
:1028900050EA0102F2D1641C039AC4F111031444FA
:1028A000119A012A03D0012208430DD10AE00843FE
:1028B00004D000204FF0110B119072E7A3EB0B0531
:1028C0006D1E0DE05B4504DD4FF0000205F10105D2
:1028D00004E003DA4FF00002A5F10105002AECD074
:1028E00002981199C0E90231C0E9004579E700007A
:1028F000000014400000F03F300000000000F043F2
:102900000000E03F2DE9FF4F95B09A468846064605
:102910000025EEE1252877D100242746F94A012138
:10292000039400E0044316F8013F203B01FA03F052
:102930001042F7D130782A2811D06FF02F03307869
:10294000A0F13002092A16D8039A44F0020402EBDF
:10295000820203EB42021044761C0390EFE758F822
:10296000042B0392002A03DA504244F400540390EB
:1029700044F00204761C30782E2816D116F8010F88
:1029800044F004042A280DD06FF02F023078A0F113
:102990003003092B09D807EB870302EB4303C71861
:1029A000761CF3E758F8047B761C30786C280FD03F
:1029B00006DC4C2817D068280DD06A2814D104E012
:1029C000742810D07A280FD10DE044F400140AE0E6
:1029D00044F4801401E044F440147278824202D13D
:1029E00004F58014761C761C307866280BD013DC36
:1029F000582877D009DC002875D04528F6D046281D
:102A0000F4D047281AD193E118E0632835D0642820
:102A100079D0652812D18BE1702873D008DC672843
:102A2000F1D069286FD06E280DD06F2806D1ACE0A8
:102A300073282CD0752874D0782853D05246179913
:102A400090476D1C54E1C4F30250022809D00328BA
:102A50000DD0D8F8001004280DD00D6008F104083E
:102A600046E1D8F80010EA17C1E90052F6E7D8F8B5
:102A700000100D80F2E70D70F0E718F8041B8DF8D8
:102A8000001000208DF80100EB46012003E058F80B
:102A900004BB4FF0FF3061074FF0000102D40DE09E
:102AA00009F101018946B9420FDA8145F8DB1BF8CB
:102AB00009100029F4D108E009F101018946814299
:102AC000FADB1BF809100029F6D103985346A0EB56
:102AD000090721463846179A00F080FA284400EB8F
:102AE000090507E044E008E10DE01BF8010B524640
:102AF00017999047B9F10109F7D253462146384654
:102B0000179AF2E039E00A21C4F302524FF0000BA9
:102B10000091022A06D058F8040BC117032A09D0E5
:102B20000AE023E008F1070020F00702F2E80201C2
:102B3000904605E000B2C117042A01D140B2C11786
:102B4000002906DA0A460021404261EB02012D22EB
:102B500002E0220504D52B228DF80420012203E097
:102B6000E20701D02022F7E7914657E00A2100E072
:102B700010214FF0000B00910BE010214FF0000BE3
:102B800044F004040827009103E008204FF0000BF4
:102B90000090C4F30252022A05D058F8040B002119
:102BA000032A08D008E008F1070020F00702F2E845
:102BB0000201904603E080B2042A00D1C0B24FF077
:102BC000000922072AD53278702A07D0DDF800C024
:102BD0008CF0100C5CEA0B0C05D00EE040228DF856
:102BE0000420012208E050EA010306D030238DF8CA
:102BF00004308DF8052002229146009B83F00803E3
:102C000053EA0B030AD150EA010201D1620705D54C
:102C100030228DF804204FF001097F1E3278582AA7
:102C200004D039A20C920CAA02920BE03BA2F9E765
:102C30005B46009AFDF72CFB0C9B9B5C029A521E94
:102C40000292137050EA0102F2D1029804A9081A04
:102C500000F1200B600702D524F4803400E0012746
:102C60005F4502DDA7EB0B0000E0002000EB0B014D
:102C7000009003984944401A0390E00306D4534659
:102C80002146179A039800F0A9F90544002706E0A9
:102C900001A85246C05D179990476D1C7F1C4F4597
:102CA000F6DBE0030CD553462146179A039800F053
:102CB00095F9054404E030205246179990476D1C61
:102CC0000099481E00900029F5DC08E0029802995E
:102CD00052460078491C0291179990476D1CBBF130
:102CE0000001ABF1010BF1DC5BE100F065F905449B
:102CF000761C307800287FF40DAE19B02846BDE868
:102D0000F08F000009280100303132333435363776
:102D10003839616263646566000000003031323327
:102D200034353637383941424344454600000000C7
:102D3000600700D4062708F1070020F00700F0E83C
:102D40000223804603F0004C5FEA0C0001D097A0FC
:102D500009E0200501D596A005E0E00701D095A087
:102D600001E0AFF24C001390307823F00043652867
:102D70000CD006DC452809D046281DD047287FD135
:102D80003BE0662818D067287AD136E00021112F61
:102D900001DB112000E0781CCDE9000104A90CA89A
:102DA000FFF7EEFCDDE90D010C9A4FF0000B07F187
:102DB0000109109200914EE04FF000400097CDE9DC
:102DC000011004A90CA8FFF7DBFCDDE90D020C9B48
:102DD0000F994FF0000B91461093009211B9791C96
:102DE00000EB0109B7EB090003D4C0F1FF3B07F189
:102DF0000109A9EB0700019042E0012F00DA012749
:102E00000021112F01DD112000E03846CDE900013D
:102E100004A90CA8FFF7B4FCDDE90D010C9A0091A0
:102E20004FF0000BB946109221070FD4009A4A4583
:102E300003DA914601E0A9F10109B9F1010F05DDBD
:102E4000109AA9F10101515C3029F4D0B84202DA9C
:102E500010F1040F03DA0121CDE9011010E0002880
:102E600003DC8344A9EB000102E0411C494500DD7D
:102E70008946A0EB0B00401C01904FF000400290EF
:102E8000200705D40198484502DB4FF0FF30019040
:102E900000208DF84B0002980DF14B07B0F1004F68
:102EA00025D002200C902B200D90029800280CDADF
:102EB000404202902D200D9007E00A210298FDF774
:102EC000D1F93031029007F8011D0C99481E0C9081
:102ED0000029F2DC02980028EFD1791E0D980870C5
:102EE000307800F0200040F0450007F8020D11A8EE
:102EF000C01BC01D02901398007800B1012000EBA8
:102F00000901019801EBE071029801440398401A0D
:102F1000401E0390E00306D453462146179A0398B7
:102F200000F05CF805441398007818B152461799E0
:102F300090476D1CE00323D553462146179A03980A
:102F400000F04CF805441BE0BBF1000F07DB0098D4
:102F5000584504DD1098179910F80B0001E01799F7
:102F600030205246904701980BF1010B401E05F1AD
:102F70000105019004D12E205246179990476D1CEF
:102F8000B9F10001A9F10109DEDC05E017F8010B38
:102F90005246179990476D1C0299481E02900029CD
:102FA000F4DC53462146179A03989EE62D00000054
:102FB0002B000000200000002DE9F0410446002510
:102FC0001E461746880404D405E039462020B04741
:102FD0006D1C641EF9D52846BDE8F0812DE9F0414D
:102FE000044600251E469046C80301D5302700E060
:102FF0002027880404D505E041463846B0476D1CBB
:10300000641EF9D52846BDE8F081000038B50446B5
:103010008DF800000223012269460248FEF707FFEF
:10302000204638BD7C020020FEF76CF8FFF70CFA52
:10303000FEF76CFFFEF74AFFFFF73AF8FFF754F888
:10304000FFF710F8FEF7E8FF104D4FF480740022F0
:1030500021462846FEF742F84FF47A70FDF728FF24
:10306000012221462846FEF739F809A0FFF758FB50
:10307000FDF7BEFB64000D4DFFF7CAF86420FDF7B5
:1030800017FF21462846FEF721F8F5E70008014022
:103090005A45524F2072657365742073756363657A
:1030A000737366756C6C79210D0A00000010014085
:1030B000010202030405060708090A0B0C0D0E0F96
:1030C00010100000000000000000010203040607C9
:1030D000080900000000010203040000422D2564DD
:1030E0002D2D2D616E676C6531203D20252E3366B8
:1030F000202020616E676C6532203D20252E3366CE
:103100002020616E676C6533203D20252E336620BC
:1031100020616E676C6534203D20252E3366200DBE
:103120000A000000443100080000002054000000A4
:10313000602700089831000854000020740A00003D
:1031400070270008000000000000000000000000E0
:10315000000000000014014000010000D400002025
:103160000014014000020000D400002000140140BF
:1031700000040000D40000200014014000080000FA
:10318000D40000200100000010000000000000003A
:083190000024F400000000001F
:0400000508000131BD
:00000001FF
